:1000000000020400000000008E0400003403000021
:100010007403000050030000900300008E040000F1
:100020008E0400008E0400008E0400008E04000088
:100030008E0400008E0400008E0400008E04000078
:100040008E0400008E0400008E0400008E04000068
:100050008E04000006040000AC0300008E040000C3
:100060008E0400008E0400008E0400008E04000048
:100070008E0400008E0400008E0400008E04000038
:100080008E0400008E0400008E0400008E04000028
:100090008E040000640400008E0400008E04000042
:1000A0008E0400008E0400008E0400008E04000008
:1000B0008E0400008E0400008E0400008E040000F8
:1000C0008E0400008E0400008E0400008E040000E8
:1000D0008E0400008E0400008E0400008E040000D8
:1000E0008E0400008E0400008E0400008E040000C8
:1000F0008E0400008E0400008E0400008E040000B8
:100100008E0400008E0400008E0400008E040000A7
:100110008E0400008E0400008E0400008E04000097
:100120008E0400008E0400008E0400005A040000BB
:100130008E0400008E0400008E0400008E04000077
:100140008E0400008E0400008E0400008E04000067
:100150008E0400008E0400008E0400008E04000057
:100160008E0400008E0400008E0400008E04000047
:100170008E0400008E0400008E0400008E04000037
:10018000140300008E0400008E0400008E040000A2
:100190008E0400008E0400008E0400008E04000017
:100208008E04000034030000740300005003000053
:10021800900300008E0400008E0400008E0400008D
:100228008E0400008E0400008E0400008E0400007E
:100238008E0400008E0400008E0400008E0400006E
:100248008E0400008E0400008E04000006040000E6
:10025800AC0300008E0400008E0400008E04000031
:100268008E0400008E0400008E0400008E0400003E
:100278008E0400008E0400008E0400008E0400002E
:100288008E0400008E0400008E0400006404000048
:100298008E0400008E0400008E0400008E0400000E
:1002A8008E0400008E0400008E0400008E040000FE
:1002B8008E0400008E0400008E0400008E040000EE
:1002C8008E0400008E0400008E0400008E040000DE
:1002D8008E0400008E0400008E0400008E040000CE
:1002E8008E0400008E0400008E0400008E040000BE
:1002F8008E0400008E0400008E0400008E040000AE
:100308008E0400008E0400008E0400008E0400009D
:100318008E0400008E0400008E0400008E0400008D
:100328008E0400005A0400008E0400008E040000B1
:100338008E0400008E0400008E0400008E0400006D
:100348008E0400008E0400008E0400008E0400005D
:100358008E0400008E0400008E0400008E0400004D
:100368008E0400008E0400008E0400008E0400003D
:100378008E0400008E040000140300008E040000A8
:100388008E0400008E0400008E0400008E0400001D
:080398008E0400008E04000039
:100400000F6521000E7F24000E018800000000000F
:10041000000020000000E000020032000001200087
:1004200020028800140007003E0107000000E000E1
:1004300003003A00E06922000100200002003700BA
:100440000000200001002000810F70000100320038
:1004500014000700000020000000E000020032004D
:100460000000020000000000421D02000000000029
:100470000040DA000000FE004440A90000492000CE
:100480000000E0000300320000002000A00188000E
:100490004440A800000006008A1F78008B1F7800E7
:1004A0000000060091018800800478000000EB0045
:1004B0001A003700E284440032A0B4009905BA0063
:1004C000E284440032A0B4009906BA00E2844400F9
:1004D00032A0B4000006EB00476FDE00FD07B2005B
:1004E000636CE10003003A00EBFF07000000EB0043
:1004F0000A003700606CE10004003A00005DEB0088
:100500008B05E900FDFF3E00040037006168E10053
:10051000010032000086EB000B00070019C7BA008B
:100520001905BA000E04E00003003A000A00E000DA
:10053000E0FF3A0000000600FE07B2009E018800BE
:100540008A047800F5FF3700395DBA008B05E900B1
:100550000C003200295DBA008B05E900080032006A
:100560000C00E00003003A00E284440032A0B40032
:10057000F5FF370019DDBA008B05E900FAFF3A00F4
:100580008904E800E184440032A0B40000000600C1
:10059000B43D040000000000FE4104000000000023
:1005A0007A2B04000000000010420400000000004C
:1005B000622C0400000000008634040000000000EB
:1005C000E83D040000000000B0420400000000000C
:1005D000BC42040000000000A4420400000000002F
:1005E000402D040000000000104304000000000043
:1005F0001243040000000000144304000000000047
:10060000164304000000000018430400000000002E
:100610001A430400000000001C4304000000000016
:100620009C400400000000003600F800809FBE00DF
:10063000829FBE00849FBE00869FBE003400F800EB
:1006400000002000A0018800600907003400F900C4
:100650004F03BE004F02BE004F01BE004F00BE0060
:100660003600F900004006003600F800809FBE000A
:10067000829FBE00849FBE00869FBE008020A9008E
:100680000000EB00D71F07004F03BE004F02BE0063
:100690004F01BE004F00BE003600F90000400600CA
:1006A0003600F800809FBE00829FBE00849FBE007F
:1006B000869FBE00C01621008007780040182100E8
:1006C000000188008040A90010002000C51F07001D
:1006D0004F03BE004F02BE004F01BE004F00BE00E0
:1006E0003600F900004006003600F800809FBE008A
:1006F000829FBE00849FBE00869FBE008060A900CE
:1007000020002000B71F07004F03BE004F02BE00AD
:100710004F01BE004F00BE003600F9000040060049
:100720003600F800809FBE00829FBE00849FBE00FE
:10073000869FBE008080A90030002000A91F07000E
:100740004F03BE004F02BE004F01BE004F00BE006F
:100750003600F900004006003600F800809FBE0019
:10076000829FBE00849FBE00869FBE009044800092
:1007700000000100E2448000D0448000820F50005D
:100780001A0032008580A900F3EF200004E0200069
:100790002322AB000A003A00D0448000B080FB0066
:1007A00021118800D0448800D0448000830F50007D
:1007B00009003200D0448000820F5000F4FF3A005C
:1007C0004F03BE004F02BE004F01BE004F00BE00EF
:1007D0003600F90000400600D4448800D044800070
:1007E000820F5000EAFF3A00F5FF37009580A9001C
:1007F0004F03BE004F02BE004F01BE004F00BE00BF
:100800003600F90000400600F3FF37003600F8001C
:10081000809FBE00829FBE00849FBE00869FBE0058
:100820008560A900B3448000E2DF200014C0B3005B
:1008300005D020002202AB000C003200C044800032
:100840003111800001487800C0448000820F5000C0
:100850000E0032009808EC00808F51000B0032002F
:100860009828EC002202AB00F4FF3A00A04480007C
:10087000000001004F03BE004F02BE004F01BE004A
:100880004F00BE003600F90000400600C144800061
:10089000828F500003003200E08920000448780075
:1008A000E4FF3700858F5100FBFF3200C54488000C
:1008B000E0FF37002222AB00010032002222A90013
:1008C0008C20A900004006003600F800809FBE0082
:1008D000829FBE00849FBE00869FBE0000458000B0
:1008E0000000E0000100320000000100D0242100DF
:1008F0001048E80011C0B300C0242100014878006E
:100900008760A9004F03BE004F02BE004F01BE002A
:100910004F00BE003600F900004006000040DA003B
:100920000000FE00000005006022B8000602200062
:100930000000D0008180D2000482D2008582D200E3
:100940000000A0000202520083825A00030031001E
:100950000202420083824A000000A1000603E9006F
:10096000F3FF3A0000000600EFFF07000400BE009E
:10097000000006000000FA0068815700CFB8970019
:100980003F0207000080FA0000000600889FBE00BA
:100990008A9FBE00800478000200E0005B00320005
:1009A00001407800814C780082814400F1F99F0079
:1009B000E20F51005500360091449800A144980080
:1009C000E1F99F00D1F99F00E60F51004F0036007A
:1009D000B1449800C1F99F00E80F51004B00360068
:1009E0000905EA00630565000A8444000A05510010
:1009F000C1FF2F00010565000080FB008000EB00B7
:100A000012102000131020007E050700008CBE008D
:100A10000A01440060B99F0071B99F00E80F5500BA
:100A20003A003600200498003104980040049800F1
:100A30005104980020B99F0031B99F0040B99F0030
:100A400051B99F00F80F550030003600600498003F
:100A500071049800000C9800110C9800200C98006C
:100A6000310C9800400C9800510C980020B19F0068
:100A700031B19F0040B19F0051B19F0060B19F0014
:100A800071B19F0000B99F0011B99F00640164001B
:100A90007801410002044400020555006011B800CD
:100AA0000203BE000002BE000403BE006022B800C4
:100AB0000000720081807200020173008381730064
:100AC00010003700009CBE000294BE004004980055
:100AD000510498006204980073049800000C980078
:100AE000110C9800220C9800330C9800400C9800D0
:100AF000510C9800620C9800730C98000A02B10027
:100B00000802B000FF0F5500EEFF3E00090078001C
:100B10004F05BE004F04BE0000000600EC874700F2
:100B2000889FBE008A9FBE008C9FBE008E1F7800EB
:100B3000000678000104780018079000280590004E
:100B400098067800CDB79F00B80590003202BE002D
:100B50002203BE000400BE000601BE004F18DE00E6
:100B60006011B8008000EB00D0B79F00E1B79F0094
:100B7000F2B79F0083BF9F00800478000900E00067
:100B8000060032006000B8006011B8000402500096
:100B90008582580006035900878359000E00E00043
:100BA000020035000D10A100CDB79F000900E00044
:100BB00005003A004FB097000028A30002003A0059
:100BC0000038A300020032008A00E900010037006B
:100BD0008A007800F8815700A20020000800780001
:100BE000860007000900E00003003A00CFB097003C
:100BF0000128A300080032000000E9000081450040
:100C0000B1C2B3000900E00001003200D1C2B3005C
:100C100001497800050037000138A30003003200C5
:100C20000000E90001C2B30081757800480190001E
:100C30000201E90000015100808045004FB2970099
:100C40008A0178000C007800300207009C009000B8
:100C50000188A3000400320098009000810F50002A
:100C600001003D00010078004F0778004F06BE00EC
:100C70004F05BE004F04BE00CF00B10000000600CB
:100C80000200FA00889FBE008A9FBE00800578009F
:100C900001047800020078001801900028059000F7
:100CA00098007800B1BF9F00B80490000200E000F7
:100CB000020035000110A100B1BF9F00EA8157007A
:100CC000820020008A0078003002BE002003BE00AF
:100CD00008007800490007003FB99700F000610064
:100CE000030032000000E90001C3B3008174780002
:100CF0003FB99700E8006100030032000000E900FE
:100D000001C2B30081747800480190000201E9003B
:100D100000015100808044003FBA97008A017800AA
:100D20000B007800F90107009B0090000188A300E8
:100D30000400320098009000810F500001003D0037
:100D4000010078004F05BE004F04BE000080FA008D
:100D500000000600EA874700889FBE008A9FBE0009
:100D60008E1F780000047800030078007287570017
:100D700084E2260055C72600049FBE00C3962200C9
:100D8000030F78006C875700004FEB0011059000AF
:100D9000A1049000910578000200E00002003200FA
:100DA0000207780001003700728757000000E0005A
:100DB00002003A000E007800E80307000A00E00095
:100DC000030035008A0F5000010036000A00780049
:100DD0000B02780089017800000178008E0078000D
:100DE00008007800C90107004F0778004F05BE00D2
:100DF0004F04BE00AF00B10000000600F4874700BA
:100E0000889FBE008A9FBE008C9FBE008E1F780008
:100E10000605BE000404BE0081BF9F0082B79F008C
:100E2000F3B79F00B0009000E1B79F001301780076
:100E300092B79F0090069000400090000000E900EB
:100E4000000678000D00E00001003D001D002000BC
:100E50008040EB00EFB19700817178001E00200008
:100E60001F0037000C06E9000FB09700CF80DE00AE
:100E70006109B900A0B79F00B1B79F00C2B79F003A
:100E8000D3B79F000203BE000002BE000800BE00F0
:100E90000A01BE0001050700000778000E40780037
:100EA0000043B000EFB0970080707E008D06E9002F
:100EB0000FB997000201E90082BF9F002FB297008F
:100EC000BFB297004FB39700DFB397000800BE0092
:100ED0000A01BE00EA0407000205BE000004BE00CD
:100EE0000C00E0000D003400E00F5400E08F5C00C7
:100EF000E00F5D00E08F5D00DAFF3A000D00E000DA
:100F0000D8FF3C008FB997000300E00003003400D5
:100F10001FB097000018A300D2FF3A000E00E000B7
:100F200002003A00FFB097001140A1000C007800C9
:100F30004F0778004F06BE004F05BE004F04BE00AD
:100F40004F01B100000006000200FA00889FBE00B9
:100F50008A9FBE0000057800010478000200780036
:100F600018019000A804900098007800B1BF9F007D
:100F7000B80590000200E000020035000110A10059
:100F8000B1BF9F00EA815700A200200089007800CD
:100F90003002BE002003BE000800780097FF070063
:100FA000480190000201E9000001510080804500E5
:100FB0003FBA9700890178000A00780053010700C2
:100FC0009A0090000188A30004003200980090006D
:100FD000810F500001003D00010078004F05BE0068
:100FE0004F04BE000080FA0000000600FA874700A8
:100FF000889FBE008A9FBE008C9FBE008E1F780017
:1010000080047800010478008205780018019000BF
:101010002805900018077800B80090000200E00052
:10102000020035000E10A100010037001200200060
:1010300070006700E0B79F00090032003B02BE006D
:101040002B03BE00E00F5200E08F5A00E00F5B0060
:10105000E08F5B00020032008A86E9000100370061
:101060008A067800E8026700F5B79F0001003200A9
:101070008D06E9003B02BE002B03BE00E4AF9F00DB
:10108000F5AF9F0086B79F0097B79F004806900076
:101090000C06E9000040EB0080707E00EFB2970084
:1010A0007FB297008903780081047800D8AF9F0051
:1010B000020478008BBF9F008A0578000345780002
:1010C0002A0037000C06E9006FAB97006F00630041
:1010D000E90F500002003C000003B000010037009F
:1010E0007005B0000A03FB001604B100F90F5300AD
:1010F0000C003E00000378000650A0001606B10068
:10110000F90F530007003E00B4B79F00A5B79F003A
:10111000C7B79F002F030700CFB39700AFB2970068
:101120003FB2970080747E000804E9008D06E90054
:101130006FA89700FFA897000FB197009FB1970085
:10114000460020008301D1000281D3008180D300BA
:101150000080D3000603E900FAFF3A00E0AF9F00E9
:10116000F1AF9F0082B79F0093B79F00E10F560039
:101170000F0034006FA89700FFA897000FB19700E9
:101180009FB19700E00F5000E08F5800E00F59002A
:10119000E08F5900CBFF3A000800E000C9FF3C0097
:1011A0000D00E000020034000E18A300C5FF3A0055
:1011B00089007800F4B79F00870478005FAC97003F
:1011C0008A4178000B0578008FBD97000500E0008C
:1011D000100032003B02BE002B03BE00E4AF9F00B4
:1011E000F5AF9F0086B79F0097B79F00E00F5200B2
:1011F000E08F5A00E00F5B00E08F5B0005003200DB
:101200000C06E90083707E000C06E90000C3B30001
:1012100080707E00FFB297000500E00003003200FE
:101220000C06E90000C2B30080707E004801900007
:101230000201E9000C0151008C8040000E02780090
:101240008A01780009007800B0000700990090003A
:101250000188A3000400320098009000810F500024
:1012600001003D00010078004F0778004F06BE00E6
:101270004F05BE004F04BE00AF01B10000000600E4
:101280008201780001017800F1FF2700D7023700C2
:1012900084082000848F50001D0032000D003C00A7
:1012A00014082000848F50002700320002003C0008
:1012B000040820000400370024082000848F500018
:1012C0003400320044082000848F500043003A006C
:1012D00036003700040A2000848F500027003200B7
:1012E00004003C0004092000848F50003B003A00B9
:1012F00028003700020C2000828F50002F0032009F
:10130000020F2000828F500034003A002B0037007B
:101310009380E9000200E0000500320081097800B6
:101320001102FB00CFA2DE00612BB90028003700BC
:1013300081097800114278000482FB008002EB00F2
:101340006033B8002200370013027800E400520036
:101350000200E00005003200810978001102BE00A1
:101360004FABDE0086037800190037008109780052
:101370001102BE006033B800150037009380E90009
:101380008109780011027800CFA2DE00612BB9003C
:101390000F00370093027800E8805200810978003E
:1013A0003102BE002103BE00090037009380E9002E
:1013B0000200E00002003200F1FF37009380E900F4
:1013C00081097800110278008002EB006033B800D8
:1013D0000498BE000690BE00100005000000050045
:1013E00044082000848F50002500320008003C0093
:1013F00014082000848F50001400320024082000BC
:10140000848F500024003200040820000C003700B4
:1014100004092000848F50001F00320004003C00AB
:1014200084082000848F500024003A000E0037000A
:10143000040A2000848F500011003200040C2000A8
:10144000848F50001D003A000D0037009380E900A2
:10145000810978009100780001087800CF91DE00C2
:101460008288BE00140037009380E900810978006B
:101470009100780001087800824878000E0037005B
:101480009380E900810978009100780001087800D4
:1014900082087800080037009380E900810978000D
:1014A00091007800010878006112B900612BB90041
:1014B0008498BE008690BE00100005000000050064
:1014C000889FBE00000478004800900082047800E5
:1014D000808F5400010036008004780009017800F4
:1014E00058009000160207005800900009004000C4
:1014F00050049800C8009000898450004904980066
:101500000048EB004F04BE0000000600F2874700D1
:10151000889FBE008A9FBE008C9FBE008E1F7800F1
:1015200080047800010578000204780083057800C3
:101530006107620002003A008B0F54000800390076
:10154000080178008A00780009007800DCFF0700B5
:101550008B0F540002003900880578001E00370008
:10156000088655000C017800F00F56000100360087
:1015700002012000010220007E80570003FD0700C9
:101580008C0678000500370002012000FE8057001D
:1015900009007800CAFF0700F0865600EF8F56005A
:1015A000F9FF3E004461DE0000FF2F000091B9000A
:1015B00002014600FE80570009007800C0FF0700C6
:1015C0000E00E00004003A00080178008A0078006C
:1015D00009007800BAFF07000B0078004F07780079
:1015E0004F06BE004F05BE004F04BE002F01B100E4
:1015F0000000060000000500000178000040EB003C
:101600008080FB00818040004319210063C2780084
:101610000404E00003003A005019210060C0780083
:101620000000060092017800934F520004003A0037
:101630005019210060C078000309E800010037005C
:101640000040E800EA4F5000EDFF360000000600C1
:10165000F6874700889FBE008A9FBE008C9FBE0011
:101660008E1F78000005780001047800830578005B
:10167000040678000000EB00C0B79F008080EB00FC
:10168000D1B79F00E0B79F00F2B79F00000820008D
:1016900080BF9F0098007800010078008004EB0074
:1016A000010037008904E800304178000204E000BE
:1016B0000300320053C2B300834F5100F9FF3A00D8
:1016C0000900E00004003200090178000A007800F7
:1016D0007BFF0700188C44001807780050C2B30045
:1016E0009E4F10003F013A000E07E8000E0C7800F4
:1016F00010003700CFB097000100A0000B003700AA
:10170000CFB097000110A00008003700CFB09700BD
:101710000120A00005003700CFB097000130A000E5
:1017200002003700CFB097000140A000C1B79F0072
:10173000000CE8001800780090407800B2C2B300B6
:1017400082CF5000F1FF320007003C0002C2B3001C
:1017500082CF5000F0FF320032C2B30082CF50007F
:1017600007003A00EFFF3700D2C2B30082CF50002B
:10177000E0FF320002C3B30082CF5000E0FF32002E
:10178000A2C2B30082CF50000D003A00000CE80066
:101790001C80E900000E780010007800E0B79F0080
:1017A0000000E0000F003D00CFB097000100A20054
:1017B000C1B79F000000EA00E0B79F0009003700B2
:1017C00039010700E0B79F0001003700000CE80076
:1017D000180078009000FB000103B100E98F500071
:1017E000FAFF36004FB097000008A3000200320055
:1017F0000010A100C0B79F0018007800E1C2B3003C
:1018000090CF100016003A008000EB00D1B79F0087
:101810000000E800000C7800A1C2B30090CF1000D7
:1018200006003A00000CE8001C80E900000E780079
:1018300010007800D0B79F00090037001A01070098
:10184000D0B79F0001003700000CE80018007800B6
:101850009000FB000103B100E98F5000FAFF360051
:101860000800780064FF07008046780018007800C0
:101870001000FB005101070091062000810F50006D
:101880003800320012003C0041062000810F500059
:10189000340032000A003C0011062000810F500085
:1018A0002000320031062000810F5000A0003200DD
:1018B00051022000810F5000BC003A00B4003700F4
:1018C00071062000810F5000B8003C0088003700EE
:1018D00001072000810F50005C00320007003C002F
:1018E000E1062000810F50007A003200F10620004E
:1018F000810F5000AD003A00390037005107200039
:10190000810F50002700320081072000810F500016
:101910004200320031072000810F5000A3003A003E
:101920008F0037008D80FB000C01780000FE2F0037
:101930000F004000520107000000E000A800320044
:1019400018007800000CE8009041780002FE2F009B
:101950000F014100F88057000A00780025FF0700BA
:101960000E0037008D80FB008C01780012002000F3
:1019700000FE2F000F00400045FE07000000E000C1
:1019800097003200180CE80002FE2F000F01410002
:10199000F88057000A00780060FC0700808444004B
:1019A000900037008D80FB008C0178000001EB0077
:1019B00000FE2F000F00400035FE07000000E00091
:1019C00087003200180CE80002FE2F000F014100D2
:1019D000F88057000A0078005BFD0700EFFF370032
:1019E0008D80FB008C0178000001EB0000FE2F00D1
:1019F0000F00400026FE07000000E00078003200E3
:101A0000180CE80002FE2F000F014100F88057007B
:101A10000A0078009AFC0700E0FF37008D80FB0089
:101A20008C0178000001EB0000FE2F000F00400049
:101A300017FE07000000E00069003200180078007F
:101A4000000CE800904178001C0037008C01780001
:101A50000001EB00010F200000FE2F000F004000EE
:101A60000BFE07000000E0005D003200180CE800EB
:101A70000FB097009FB097002FB19700BFB19700AC
:101A8000E00F5000E08F5800E00F5900E08F590040
:101A900009003A00CFB597006FB49700C018210035
:101AA000AE0007000B027800880178000001780082
:101AB000C11821004700370083C7B30002FE2F0082
:101AC0000F014100F88057000A00780047FD070029
:101AD000B2FF37000B8144008D80FB008C01780041
:101AE00000FE2F000F0040003DFE07003C003700C5
:101AF0008D80FB000C01780000FE2F000F004000DD
:101B0000DF0007000000E000350032001800780018
:101B1000000CE8009041780002FE2F000F01410008
:101B2000F88057000A007800B2FE07009BFF3700DC
:101B300000C8B30080CF560029003A00180CE80016
:101B40001C80E900000E780010407800E0DF9F0064
:101B500013002000E2FD2F000F01410008003700B4
:101B600000C8B30080CF56001D003A00180CE800F2
:101B70001C80E900000E78008001EB001001780065
:101B8000F88057000A00780072FC070083FF3700D6
:101B900000C8B30080CF560011003A00180CE800CE
:101BA0004FB29700EFB19700080037000E0C780095
:101BB0000000EB00C0B79F00E0B79F000080EB0083
:101BC000D0B79F000002EB008401780012002000D3
:101BD000211921000A0078004CFE07006FFF370032
:101BE000180CE800090078004F0778004F06BE0087
:101BF0004F05BE004F04BE006F01B100000006009B
:101C00008200FA00889FBE008A1F780000057800D5
:101C100082047800C13F9F000004EB0010003700F1
:101C20000902780088017800A2F72F000F01410017
:101C300081F72F008F8040000A00780084FE0700A3
:101C400008004000880F500004003D00B004200050
:101C5000709288000084EB000400370000047800D4
:101C60004F3897001004E000EDFF3A0008007800BC
:101C70004F0578004F04BE000080FA000000060007
:101C8000800078001000200002022000828F5000A7
:101C900004003200E9805000E48F5000010036005B
:101CA0000000EB0000000600889FBE008A1F78003D
:101CB000000578000A047800984478000805E800D8
:101CC0000900FB00EEFF07000000E000F9FF3A000A
:101CD000B0C2B30080CF540005003200D0C2B300C0
:101CE0008000EB0080CF540005003A00020037006E
:101CF0008000EB0001003700110020000804E8001C
:101D00000000EB00030037006A02B9000200520035
:101D10000003B0003801FB0003FD2F008281410069
:101D2000E98F5100F8FF36000100E00001003A00A1
:101D30000000EA004F0578004F04BE0000000600D6
:101D40008001780002003700B15978000201E900F3
:101D50000200E000FCFF3A0000000600800078006E
:101D6000040037003104E00002003A000000510096
:101D700000000600010178000108A300F9FF3A0005
:101D80008101780031017800F4EF2F000202420057
:101D90000281EA00020162000408280004016100D7
:101DA000F7FF320083007800010178003104E00081
:101DB000FDFF3A000000510000000600F1FB2F007B
:101DC00080804000F98F500001003E000050A000CC
:101DD00000000600F1F92F0080804000F98F5000CC
:101DE00001003E00F005B20000000600F287470047
:101DF0008E1F780002027800030178000000E000E6
:101E00000200320000077800010037007287570097
:101E10008002EB000100E000010032008102E900D5
:101E200070805700060009000018EB000080EB00EE
:101E300080BF9F002310200093BF9F00AEBF9F0074
:101E4000B1BF9F00C5BF9F000100E00003003D003F
:101E5000B10420007192880006003700004FEB00AB
:101E6000EEBF9F00DEBF9F008400780070805700A7
:101E7000220007004F0778002F01B1000000060084
:101E8000881F78000004780000082000808F500030
:101E90001700350010082000808F50000B00340020
:101EA00030082000808F500011003A009200780026
:101EB00068805000000978003002BE002003BE0098
:101EC000049CBE000694BE00070037009202780012
:101ED00064805200000978001000BE001500070061
:101EE000009CBE000294BE001000200001003700DC
:101EF0000000EB004F047800000006000200FA002A
:101F0000881F780000047800E2BF9F0064815700BA
:101F1000080078003AFF0700980090000148A300ED
:101F2000010032000080EB004F0478000080FA00CE
:101F300000000600810378001D0007000001BE00BC
:101F40006000B8000478A30013003A006220E100AA
:101F500015003E000D0039008301D1000281D3003D
:101F60008180D3008301D1000281D3008180D3001E
:101F70008301D1000281D3008180D3000538B000F5
:101F8000C42ADD00F300B2008381720007F0A700CD
:101F900003F0A0000000060083FF270002002000DD
:101FA0006110B900F9FF370003FF2700F7FF370082
:101FB000C70ADE00F107B200F50FB20008003200D8
:101FC000E1CF4200020032000170A00024000500B1
:101FD000810F700001003200040805004400050074
:101FE000810F700002003A00140005008502E9002C
:101FF0000000400081C04800FCFF3B000170A000D1
:1020000024000500020AB900001BB9000200B80054
:10201000810042008100430000000600889FBE004E
:102020008A9FBE0030044200B0844A0030054B0055
:1020300090854B006000B1000898BE000A90BE0079
:102040000440E10005C8E10006D0E10007D8E10046
:1020500002003100680040001008E8004F05BE0093
:102060004F04BE0000000600889FBE008A9FBE008D
:102070003004BE002005BE000418540005985C0022
:1020800006185D0007985D00110020000440E10083
:1020900005C8E10006D0E10007D8E10001003900E1
:1020A0008000EB00108810004F05BE004F04BE00FA
:1020B000000006001200FA00889FBE008A9FBE0042
:1020C0008C9FBE00E0B79F00F1B79F0082BF9F00CA
:1020D00093BF9F000605BE000404BE000000EB0095
:1020E000D0B79F00C0B79F00B0B79F00A0B79F00B8
:1020F00090B79F00000678005FB19700CFB09700BF
:10210000820141003FB097000200E00004003D0062
:10211000370007007E805700C0FF0700030037002C
:10212000330007007E805700CFFF0700DFB697001F
:102130000D00E0000C0035006FB29700FFB2970071
:102140000FBB97009FBB97001000200001002000EC
:102150006011B800000272008182720002037300F5
:10216000838373001B0007000C06E80001042000B5
:10217000810F5600E0FF3A000D00E00004003D0032
:102180000802BE000A03BE007E805700A3FF0700BE
:102190005FA897000000E00005003A001FB297001A
:1021A000AFB297003FB39700CFB397000900070085
:1021B0006FB09700FFB097000FB997009FB99700D5
:1021C0004F06BE004F05BE004F04BE000080FA005F
:1021D000000006000100070000000600A4B79F00F1
:1021E000B5B79F00C6B79F00D7B79F000000060095
:1021F0004F09DE0082817100B3B79F004F01DE00FE
:102200008180400082807000A1B79F008FB097004E
:102210004F09DE00000040000200700090B79F00F0
:102220007FA897004F01DE0081804000828070000F
:1022300081B79F000D0007004F3ADE00000040000C
:1022400004007000F0AF9F00080007000402420085
:1022500085824A0006034B0087834B00DFFF07009F
:102260000802BE000A03BE00000006002FB297005D
:10227000BFB297004FB39700DFB39700000006008E
:10228000881F780018002000881F780089FF070049
:102290008F87E9004F04780000000600801FEB00E4
:1022A00084FF07008F87E900000006000D0A000088
:1022B00050490000432000004B4900005433000007
:1022C0002041000056520000204D00004F44000005
:1022D000450000004175000067200000313000001B
:1022E0002032000030320000350000000D0A0000EE
:1022F000465700003A20000000300000313A00004C
:10230000313300003A35000033000000202D00007A
:10231000200000000D0A0000436C00006F63000005
:102320006B3A000020000000487A00000D0A00000F
:10233000526500007365000074200000636F0000A8
:10234000646500003A200000000D00000A2D000026
:102350002D3E00005452000041500000523A00004F
:102360002041000020540000726100007020000035
:10237000436F00006E6600006C690000637400002B
:1023800020520000657300006574000020680000A2
:1023900061730000206F000063630000757200002D
:1023A00072650000640000000D0A00002D2D000081
:1023B0003E4900004F50000055570000523A0000BF
:1023C000204100006E200000696C00006C65000078
:1023D000676100006C2000006F700000636F0000F8
:1023E000646500002F6100006464000072650000F5
:1023F00073730000206F000072200000756E0000F3
:10240000696E000069740000696100006C69000079
:102410007A6500006420000057200000726500000B
:102420006769000073740000657200002075000089
:1024300073650000642000006173000020610000EB
:102440006E200000416400006472000065730000AB
:1024500073200000506F0000696E0000746500007A
:10246000720000000D0A00002D2D00003E43000008
:102470004D3A000020410000204300006F6E000034
:1024800066690000677500007261000074690000F1
:102490006F6E0000205700006F7200006420000083
:1024A0004D690000736D00006174000063680000F6
:1024B0002052000065730000657400002068000071
:1024C00061730000206F00006363000075720000FC
:1024D00072650000640000000D0A00002D2D000050
:1024E0003E5000004D5300004C5000003A200000C8
:1024F000507200006F670000726100006D200000E4
:102500006D6500006D6F00007279000020620000B0
:102510006961000073200000766F00006C74000099
:102520006167000065200000726500006D610000B9
:10253000696E000073200000706F00007765000076
:10254000726500006420000064750000726900007C
:102550006E670000205300006C650000657000008D
:10256000000D00000A2D00002D3E0000455800001F
:10257000545200003A200000204D0000617300001A
:102580007465000072200000436C0000656100006B
:102590007220000028700000696E000029200000F1
:1025A000526500007365000074200000686100003F
:1025B000732000006F6300006375000072720000FA
:1025C00065640000000D00000A2D00002D3E000093
:1025D00053570000523A0000205300006F6600007D
:1025E00074770000617200006520000052650000F1
:1025F0007365000074200000776100007320000004
:102600006578000065630000757400006564000073
:10261000000D00000A2D00002D3E00005744000070
:10262000544F00003A20000057610000746300001E
:10263000686400006F67000020540000696D0000AE
:102640006572000020540000696D0000652D0000D7
:102650006F75000074200000466C00006167000088
:102660002062000069740000000D00000A2D0000C7
:102670002D3E0000534C000045450000503A00003C
:1026800020440000657600006963000065200000BA
:102690007761000073200000696E00002053000085
:1026A0006C65000065700000206D00006F64000024
:1026B000650000000D0A00002D2D00003E490000BD
:1026C000444C0000453A00002044000065760000BC
:1026D000696300006520000077610000732000003E
:1026E000696E000020490000646C00006520000055
:1026F0006D6F000064650000000D00000A2D0000F1
:102700002D3E0000424F0000523A000020420000DF
:10271000726F0000776E00002D6F0000757400006E
:1027200020520000657300006574000020680000FE
:1027300061730000206F0000636300007572000089
:1027400072650000640000000D0A00002D2D0000DD
:102750003E5000004F5200003A200000506F000031
:1027600077650000722D00006F6E0000205200009F
:10277000657300006574000020680000617300004C
:10278000206F000063630000757200007265000036
:10279000640000000D0A00005553000042200000B4
:1027A000494400003A200000000D00000A530000D8
:1027B00079730000746500006D200000696E0000F0
:1027C00069740000206400006F6E0000650D000059
:1027D0000A000000494E0000464F00000D000000B6
:1027E00056500000503D00004F4E00000D0000000C
:1027F00056500000503D00004F460000460D0000BE
:1028000000480000565000000D0000000D0A0000B6
:10281000504B000033200000506F0000776500002F
:10282000722000006F6E0000000D00000A500000D2
:102830004B330000205000006F77000065720000ED
:10284000206F000066660000000D00000A500000C6
:102850004B3300002056000055530000422000007A
:102860006F6E0000000D00000A5000004B330000A6
:102870002056000055530000422000006F66000003
:10288000660000000D0A00005650000050200000B5
:102890006F6E0000000D00000A560000505000004E
:1028A000206F000066660000000D00000A4D000069
:1028B000434C0000522000006F6E0000000D00002D
:1028C0000A4D0000434C0000522000006F660000DB
:1028D000660000000D0A00004E6F00002055000049
:1028E00053420000207000006F7700006572000006
:1028F000000D00000A410000707000004D610000F2
:10290000696E0000206900006E69000074200000FC
:10291000646F00006E6500000D0A0000000D0000ED
:102920000A55000053420000207000006F7700003D
:10293000657200002072000065610000647900008B
:10294000000D00000A560000444400003D25000030
:10295000640000000D0A000056500000503D0000C9
:1029600025640000000D00000A48000056500000D9
:10297000206500006E74000072790000000D0000F8
:102980000A44000061740000613D0000000D000079
:102990000A56000044440000206900007320000033
:1029A0006E6F00007420000072650000616400001A
:1029B000790000000D0A0000565000005020000071
:1029C00069730000206E00006F7400002072000028
:1029D0006561000064790000000D00000A450000F8
:1029E000525200004F5200000D0A0000000000008B
:1029F0001201000000020000EF02000001080000C8
:102A0000D80400000A0000000001000001020000DC
:102A100003010000090200008D0000000401000015
:102A200000C00000320800000B000000020200009D
:102A30000201000000090000040000000001000085
:102A40000202000001000000052400000010000048
:102A5000010400002402000002050000240600001A
:102A60000001000005240000010000000107000033
:102A700005810000030800000002000009040000B6
:102A800001000000020A0000000000000007000032
:102A900005020000024000000000000007050000E1
:102AA0008202000040000000000800000B0200004D
:102AB0000202000002010000000900000402000000
:102AC00000010000020200000100000005240000D7
:102AD00000100000010400002402000002050000B4
:102AE000240600000203000005240000010000008D
:102AF0000307000005830000030800000002000037
:102B00000904000003000000020A000000000000A9
:102B10000007000005040000024000000000000063
:102B200007050000840200004000000000000000D3
:102B3000040300000904000020030000520000000C
:102B4000500000004300000020000000450000008D
:102B50004C0000004500000043000000540000004D
:102B6000520000004F0000004E000000490000002D
:102B700043000000530000001E0300004D00000051
:102B8000750000006C000000740000006900000087
:102B9000200000005500000053000000420000002B
:102BA0002D00000055000000410000005200000010
:102BB000540000000A950000989500009C950000C4
:102BC000BC9500004A11000002040000E88747009D
:102BD000889FBE008A9FBE008C9FBE008E1F78001B
:102BE00070438000E10F5000390032008084AB0058
:102BF000020032008284AB008E003A008824AB00D1
:102C00002C003A008A04AB00020032008C04AB00B6
:102C100097003A008A84AB00020032008C84AB003B
:102C2000A7003A0080C4AB007C003A008A44AB00A5
:102C3000090032008C44AB00AE003A004000200096
:102C4000502488008448E200010032008468ED00CE
:102C50008448E200820032008AE4AB000C003200BB
:102C60008CE4AB000A003200AA24AB00060032005C
:102C7000A04380001041900001C8B300814F510073
:102C8000E1003200AA24A900000820005024880096
:102C90008A24AB00020032008C24AB007D003A0095
:102CA00070438000E30F5000020036008C64AB00DC
:102CB0000F003A008EC0A9004F0778004F06BE00F3
:102CC0004F05BE004F04BE008F00B100000006009B
:102CD00094C4AB00C5FF3A008AA4EF008C04A8009E
:102CE0008C84A8002000200070438800BFFF3700BC
:102CF00048C0B3000AC02300094023000B00240091
:102D00000C4028008A64AB00EAFF32009024800067
:102D10007EE8B7007EC8BF000080FB004400DE00F4
:102D200080E8B70080002000502488007EC8BF00E3
:102D30000038A30078003A0080C8BF000080FB0084
:102D40008123210061417800614161000204A200F9
:102D5000E14178000304A10002C171008270780093
:102D60008048E20078003A00D0C2B30084E8B7009F
:102D7000E187200091407800B10FB20079003A005D
:102D80007EC8BF00C00FB20003A020000080410039
:102D9000A0438800000178000220A200B24388000E
:102DA00010026500890F5200AD003200A18720009B
:102DB00091407800E2CF5000F30132007A68EF00D2
:102DC0008248E2008C003A0080C0B30000497800DD
:102DD000B04380002121210011009800C1C0B30040
:102DE00011409800B1438000114090000074A00091
:102DF000904098000844E900C2FF3A008EC0A90044
:102E00004F0778004F06BE004F05BE004F04BE00BE
:102E10008F00B10000000600ADFF37000004200065
:102E200000248800FA1407008A44AB008AFF3200AD
:102E300080FF370008012000082488006C68EF003C
:102E40000001EB0082007800400720002D150700EC
:102E50008284A900082488007268EF0067FF3700A9
:102E6000EB1107008AE4AB0089FF32007CFF3700DA
:102E7000D10C07009EC0A8004000200070438800CD
:102E800010002000502488008A84AB0065FF3200C7
:102E900062FF3700120020008000EB00F0FF2700E7
:102EA000181507008EA4EF00200020005024880091
:102EB00070438000E30F50007CFF3E007DFF370031
:102EC0008284A800000120005024880010C0B300B4
:102ED0006CE8B7007268EF000001EB008200780038
:102EE000500720000715070080C4AB004FFF3200D9
:102EF000CAFF3700120020008000EB0030072000DE
:102F00000015070040002000502488008448E2009B
:102F10004FFF32004DFF370080C8BF000080FB002C
:102F20002123210061417800614161000204A20077
:102F3000E14178000304A10002C1710082707800B1
:102F40008048E20088FF32000001EB00E1872000AA
:102F500020072000EB1407000844E90069FF3A004D
:102F6000A6FF37007EC8BF00B00FB200E80F5000C8
:102F7000A0FF3A00601E2100318F8000110178000F
:102F80004E11DE00E14661000120A2000108780038
:102F900070438000E80F5000280032007AC8BF005C
:102FA000E14F5000ED013200CD2021001D04E00072
:102FB0000D003D00F12021001181FB0000212100C6
:102FC0009081FB00C819DD0003017100050032008B
:102FD0009180FB001080FB004800DD000080700045
:102FE000000001001D74A1007A68EF000844E900A8
:102FF00044FF3A0081FF37008268EF000844E9008F
:1030000040FF3A007DFF3700318F80001141900072
:1030100041C8B300814F51001AFF3A00C1C0B3004C
:1030200011409800A1438000114090000074A0005E
:1030300090409800AA24A90013FF370040212100E6
:103040001080FB00F007B200B02488009604E20074
:10305000BF0132000001200070438800CFFF37001D
:10306000100090002E2121002221210007000900DC
:10307000305978008000B1007868EF006668EF0092
:103080006868EF006468EF008268EF007A68EF001C
:10309000601E2100348F8000144190000274A10052
:1030A00012429800100178000220A200328F88009E
:1030B000124290000474A100144198001020A20054
:1030C000B4438000144190000274A10012429800A1
:1030D000C29F20000049EB00F14F8800CD20210065
:1030E000804EEB00D1202100114278008048EB0097
:1030F000E1202100114278008048EB0004C6B300B3
:103100009E40620078003A00312121001182FB00CC
:103110008002EB00EB0F5200E08F5A0072003E007D
:1031200004600100FA0037000A0037006E00370023
:10313000080037006C003700EF003700DE00370072
:10314000D8003700CB0037009600370086003700E4
:103150007C0037004321210013427800E14F5200E8
:103160000A003A009E4278007FC1620007003A00E0
:10317000E24F80000270A000E24F880032C0B3002E
:10318000914F1100250232006A68EF001304E0003D
:1031900055003A009E4178007FC16100E24F510026
:1031A00051003A0064212100944278006FC162000E
:1031B0004D003200944178006FC161000281FB0034
:1031C000E40F510048003C000202200075438000DB
:1031D000828F520044003A00E24F80000270A0004B
:1031E000E24F88001404E000170235009441780093
:1031F0006FC161000281FB0002014100C31D21007B
:10320000E3017900944278006FC162000281FB0003
:1032100085232100E54279000508A30008023A0051
:103220000320A100622121001404E000FE0135000A
:10323000124178006F4061000080FB0000004000F8
:10324000C21D21000331780030C0B300914F10003F
:10325000D1013200830078000120A2001100E000BB
:10326000BF013500114090000064A000904098001C
:103270000518A30002003A001300E000FD013D0024
:10328000602121001404E000DC01350010407800CA
:10329000EF4060008180FB008223210062C0780043
:1032A0000014A10000F1780013409000B043B20078
:1032B00090419800220020008300780050002000F8
:1032C000F4B79F000F1407007FB2970014427800F4
:1032D0006F4062000080FB0000004000A14A200017
:1032E000010040001014A1000001EB0082007800F2
:1032F000300020000314070094A4A900E04F8000D0
:103300000078A300DF003A001D04E0003B013D000F
:1033100020C0B3007AE8B7006448E200050032003C
:103320008868EF008668EF000844E90075FE3A00FF
:10333000B2FE37000F1107008868EF008668EF00C3
:10334000F9FF3700E04F80000070A000E04F8800D8
:10335000602121001080FB00E12321004221210097
:1033600092707800E0FF3700602121009080FB0020
:10337000E023210000804000D04F8800E04F800013
:103380000000A000E04F880011C0B300E09F2000C3
:1033900001487800E04F80000070A000E04F8800F6
:1033A000D1FF3700E04F80000070A000E04F8800A0
:1033B000820020008000EB00C04A200083BF9F00F5
:1033C00072F50700020520008000EB0000A020003D
:1033D0006EF507009424A800202321000048EB008C
:1033E000802321000048EB00302321000048EB003F
:1033F000902321000048EB00402321000048EB000F
:10340000A02321000048EB00502321000048EB00DE
:10341000B02321000048EB00602321000048EB00AE
:10342000C02321000048EB00220020008000EB00B8
:10343000E023210055F507009424A90080A0200076
:10344000308F88008FB99700A3438800B34388006A
:103450004021210010417800018720008248780037
:103460007048E200F8003A00000120007043880034
:103470009DFF370000872000D04F8800E04F80007C
:103480000000A000E04F880011C0B300E09F2000C2
:1034900001487800E04F80000070A000E04F8800F5
:1034A00091FF37000001EB0082007800200020002F
:1034B000941307008CFF370000C8B3009E4F100024
:1034C00089FF3A00C09F200001CCB3000149780079
:1034D0005121210091407800E2CF500004013200D8
:1034E000E3CF5000F5003200E1CF50001701320069
:1034F0000048EB007CFF3700E04F80000070A00028
:10350000E04F8800800020007043880076FF37007D
:10351000A6212100004BEB00B12121008048EB00E7
:103520009E417800FFC061008180FB00E18F500068
:10353000DE003200E28F5000CA0032000100E000DD
:1035400006003A00E04F80000070A000E04F8800C5
:103550006A48E200010032001614A000E04F80002B
:103560000078A30060FF3200D64F8800E04F800053
:103570000000A000E04F880021C0B300E09F2000C1
:103580000148780058FF3700904278000580FB0022
:10359000DD2021009D80FB00E72021001781FB003A
:1035A0004811DD0082807000810F5000030036005A
:1035B0009D82FB001780FB000580FB009D80FB00C7
:1035C0001781FB004811DD008280700000805000F0
:1035D0009D407800804E78004800DE0097407800DB
:1035E000804B78000504E000110032008000EB0001
:1035F000A6212100A3202100B22021001382FB007C
:103600001280FB004800DD000000720066D87800E0
:1036100013427800804978004800DE0012427800AA
:10362000004978008100E80081CF5200F3FF3E009E
:103630001D80FB009780FB00C808DD0001007000C2
:103640002400320081C0B300B043800001487800FC
:10365000B0438000A621210016009800A2438000FC
:1036600012816500DEFD3A0081C4B300114098006C
:10367000B1438000114090000074A0009040980079
:10368000DCFD37001E04E00049003D0010C0B3001F
:103690007AE8B7006848E200080032008868EF0066
:1036A0008668EF006648E200D2FD3A00D80F0700B6
:1036B0000844E90093FD3A00D0FD37002D100700C3
:1036C0008868EF008668EF006648E200C9FD3A00AE
:1036D000F6FF370081C0B300B04380000148780096
:1036E000B0438000212121001100980041C0B300A7
:1036F00011409800B1438000114090000074A00078
:1037000090409800F12021001181FB000021210050
:103710009081FB00C819DD00030171000500320033
:103720009180FB001080FB004800DD0000807000ED
:1037300000000100C02021001074A1006648E200D2
:10374000DAFF32000844E9006EFD3A00ABFD3700B5
:10375000400020007043880010FE3700A6212100A1
:10376000308F8000160098007A0D070078C8BF00DF
:1037700041C0B300E24F50000400320081C4B300E6
:103780000D04E0000100320081C0B300308F8000E2
:1037900011409800318F8000114090000074A0000B
:1037A000904098000844E90056FD3A0093FD370028
:1037B00020C0B3007AE8B70081C0B300B0438000F6
:1037C00001487800B04380002121210011009800B9
:1037D00041C0B30011409800B143800011409000F7
:1037E0000074A000904098008868EF008668EF00A1
:1037F0006648E2007FFD3A00ACFF370081C0B300AD
:10380000B043800001487800B04380001E0098005B
:10381000C1C0B30011409800B14380001140900036
:103820000074A0009040980041C0B300308F800029
:1038300011409800318F8000114090000074A0006A
:1038400090409800D7FF3700120020000187200029
:1038500002007800AB1207000002200070438800CD
:10386000A1FE3700E14F80000170A000E14F880009
:10387000612121001104E0002E0035009140780004
:103880006FC060000080FB0000004000C11D2100EF
:1038900061007800100066008C0F50002FFF3A0086
:1038A00010C0B300004B78002CFF3700E04F8000C1
:1038B0000070A000E04F880028FF37004121210060
:1038C00035C0B30091CF120009FF3E001180FB000C
:1038D00000004000C15D2900E1007800D14F880060
:1038E000D04F80001080FB00F04F88007EFE370034
:1038F000412121001104E000FDFE3A001180FB008F
:1039000000004000A15D2900E1007800D14F88004F
:10391000D14F8000E09F2000A14090000148780036
:10392000D14F8000F09F2000B14090000148780006
:103930006DFE370091407800EFC060008180FB0091
:103940008180400060807800D2FF3700804F2900DE
:10395000D04F880020012000F04F880062FE370021
:10396000114090000074A1000064A00090409800F5
:10397000220020005000200083BF9F00F4B79F006A
:10398000E5B79F005F1207008FB997007FB29700DD
:10399000EFB2970036FE37001300E0000A003D004A
:1039A000602121001404E0000C0035001040780074
:1039B000EF4060008180FB008223210062C078001C
:1039C0000014A00000F178009340900040C8B300BC
:1039D00000C070009041980043FE3700104078000E
:1039E000EF4060008180FB002223210062C078004C
:1039F0000014A00000F17800F3FF370010407800B9
:103A0000EF4060008180FB002223210062C078002B
:103A10000014A10000F1780023FE3700A5862000E5
:103A2000844A7800D9FD3700124178006F41610067
:103A30000281FB00020141000330790002FE3700E1
:103A40000320A000F7FD3700944178006FC16100AA
:103A50000281FB0002014100E001790094427800FC
:103A60006FC162000281FB0025232100E54279003D
:103A7000E9FD370013409000B043B2009041980038
:103A800012FE37000800FA00291207000600FC00A9
:103A900010028000F041B200100288000000EB002C
:103AA000DA120700CC120700C0092400D712070061
:103AB00068805700860F0700BF090700FB1007004A
:103AC00037110700E09E20000008EB00409F200017
:103AD0000008EB00609F20000008EB00809F2000A2
:103AE0000008EB00580A07008081EB00421F20000D
:103AF000820078000040EB00A30A070012002000BB
:103B00008038210001002000910E0700218620004E
:103B10009140780062852000124178000204E000A4
:103B200014003A000104E000FEFF32000043800070
:103B30001004E000050032004000900000438800BF
:103B40000204E000F7FF32000A0037009000900006
:103B50000100010000438000218620009140780090
:103B600062852000124178004000900000438800E8
:103B7000F3FF37005668EF008040EB006015290026
:103B80001911070012C0B3006085200002487800B8
:103B900021862000914078000204E00014003A00E1
:103BA0000104E000FEFF3200004380001004E0004A
:103BB0000500320040009000004388000204E0004D
:103BC000F7FF32000A00370090009000010001006A
:103BD000004380002186200091407800628520000B
:103BE000124178004000900000438800F3FF370046
:103BF0005668EF000041EB00A1162900601729006C
:103C00002212070012C0B30060852000024878002D
:103C100021862000914078000204E00014003A0060
:103C20000104E000FEFF3200004380001004E000C9
:103C30000500320040009000004388000204E000CC
:103C4000F7FF32000A0037009000900001000100E9
:103C5000004380002186200091407800628520008A
:103C6000124178004000900000438800F3FF3700C5
:103C70005668EF000041EB00D117290060182900B9
:103C80000212070012C0B3006085200002487800CD
:103C900021862000914078000204E00014003A00E0
:103CA0000104E000FEFF3200004380001004E00049
:103CB0000500320040009000004388000204E0004C
:103CC000F7FF32000A003700900090000100010069
:103CD000004380002186200091407800628520000A
:103CE000124178004000900000438800F3FF370045
:103CF0005668EF008040EB0002802400831E200005
:103D0000A01829009F11070012C0B3006085200091
:103D10000248780021862000914078000204E000EB
:103D200014003A000104E000FEFF3200004380006E
:103D30001004E000050032004000900000438800BD
:103D40000204E000F7FF32000A0037009000900004
:103D5000010001000043800021862000914078008E
:103D600062852000124178004000900000438800E6
:103D7000F3FF37005668EF00023A80008040EB0006
:103D80008001EB0040192900C911070012C0B300DF
:103D900060852000024878004007E20013003D00E3
:103DA00021862000914078000204E00009003A00DA
:103DB0000104E000FEFF3200004380001004E00038
:103DC000D401320040009000004388000204E0006B
:103DD000F7FF32005668EF008040EB00501A2900D0
:103DE0008110070010C0B30056E8B70041C7AB0010
:103DF0001500320021862000914078006285200065
:103E0000124178000204E00009003A000104E000D9
:103E1000FEFF3200004380001004E000B3013200D6
:103E200040009000004388000204E000F7FF3200E9
:103E30005668EF008040EB00401D29006A10070023
:103E400010C0B30056E8B7004127AB0015003200A0
:103E50002186200091407800628520001241780080
:103E60000204E00009003A000104E000FEFF320015
:103E7000004380001004E0009201320040009000F6
:103E8000004388000204E000F7FF32005668EF00AC
:103E90008040EB00202329005310070010C0B3001E
:103EA00056E8B7004107AB0015003200218620001C
:103EB0009140780062852000124178000204E00001
:103EC00009003A000104E000FEFF320000438000D8
:103ED0001004E000670132004000900000438800B9
:103EE0000204E000F7FF32005668EF008040EB006C
:103EF000C02629003C10070010C0B30056E8B700E8
:103F000040E7AB0015003200218620009140780088
:103F100062852000124178000204E00009003A00A6
:103F20000104E000FEFF3200004380001004E000C6
:103F30005A01320040009000004388000204E00073
:103F4000F7FF32005668EF008040EB00102B29008D
:103F50002510070010C0B30056E8B70040C7AB00FB
:103F600015003200218620009140780062852000F3
:103F7000124178000204E00009003A000104E00068
:103F8000FEFF3200004380001004E0002F013200E9
:103F900040009000004388000204E000F7FF320078
:103FA0005668EF008040EB00302E29000E1007000D
:103FB00010C0B30056E8B7004087AB0015003200D0
:103FC000218620009140780062852000124178000F
:103FD0000204E00009003A000104E000FEFF3200A4
:103FE000004380001004E0000E0132004000900009
:103FF000004388000204E000F7FF32005668EF003B
:104000008040EB0090302900F70F070010C0B3008C
:1040100056E8B7004067AB0015003200218620004B
:104020009140780062852000124178000204E0008F
:1040300009003A000104E000FEFF32000043800066
:104040001004E000BB0032004000900000438800F4
:104050000204E000F7FF32005668EF008040EB00FA
:1040600050332900E00F070010C0B30056E8B70036
:104070004047AB00150032002186200091407800B7
:1040800062852000124178000204E00009003A0035
:104090000104E000FEFF3200004380001004E00055
:1040A0009A00320040009000004388000204E000C3
:1040B000F7FF32005668EF008040EB00A035290082
:1040C000C90F070010C0B30056E8B7004027AB0087
:1040D0001500320021862000914078006285200082
:1040E000124178000204E00009003A000104E000F7
:1040F000FEFF3200004380001004E000BF003200E9
:1041000040009000004388000204E000F7FF320006
:104110005668EF008040EB00D0372900B20F07004F
:1041200010C0B30056E8B7004007AB0020003200D3
:10413000218620009140780062852000124178009D
:104140000204E00014003A000104E000FEFF320027
:10415000004380001004E0000500320040009000A1
:10416000004388000204E000F7FF32000A00370035
:104170009000900001000100004380002186200093
:104180009140780062852000124178004000900044
:1041900000438800F3FF37005668EF008040EB00D3
:1041A000403A2900900F070010C0B30056E8B7004E
:1041B000000220004027B6002186200091407800B0
:1041C00062852000124178000204E0002F003200D6
:1041D0005668EF008040EB00A03C2900820F0700EA
:1041E00012C0B300608520000248780021862000BC
:1041F000914078000204E0002C0032005668EF0085
:1042000082C0B3004FB89700DFB897009607070049
:1042100012C0B3006085200002487800218620008B
:10422000914078000204E000280032005668EF0058
:1042300082C0B3006FB89700FFB897008A070700E5
:1042400012C0B3006085200002487800218620005B
:10425000914078000204E000240032005668EF002C
:104260008040EB00503D29005F0F070010C0B300F5
:1042700056E8B70025070700AF0F0700AF0007009B
:10428000AD0F0700AD000700FBFF37000104E000A1
:10429000FEFF3200004380001004E00039003200CD
:1042A0004000900000438800C7FF37000104E00091
:1042B000FEFF3200004380001004E00027003200BF
:1042C0004000900000438800CAFF37000104E0006E
:1042D000FEFF3200004380001004E0003300320093
:1042E0004000900000438800CEFF37000104E0004A
:1042F000FEFF3200004380001004E0003500320071
:104300004000900000438800D2FF370090009000EA
:1043100001000100004380002186200091407800C8
:104320006285200012417800400090000043880020
:104330005EFF370090009000010001000043800004
:10434000218620009140780062852000124178008B
:1043500040009000004388003DFF3700900090002F
:104360000100010000438000218620009140780078
:1043700062852000124178004000900000438800D0
:104380009CFF370090009000010001000043800076
:10439000218620009140780062852000124178003B
:1043A000400090000043880087FF37009000900095
:1043B0000100010000438000218620009140780028
:1043C0006285200012417800400090000043880080
:1043D00094FF37009000900001000100004380002E
:1043E00021862000914078006285200012417800EB
:1043F000400090000043880096FF37009000900036
:1044000001000100004380002186200091407800D7
:10441000628520001241780040009000004388002F
:1044200039FF370090009000010001000043800038
:10443000218620009140780062852000124178009A
:104440004000900000438800EAFE37009000900092
:104450000100010000438000218620009140780087
:1044600062852000124178004000900000438800DF
:10447000C9FE370090009000010001000043800059
:10448000218620009140780062852000124178004A
:10449000400090000043880091FE3700900090009B
:1044A0000100010000438000218620009140780037
:1044B000628520001241780040009000004388008F
:1044C0009EFE370090009000010001000043800034
:1044D00021862000914078006285200012417800FA
:1044E000400090000043880066FE37009000900076
:1044F00001000100004380002186200091407800E7
:10450000628520001241780040009000004388003E
:1045100045FE37009000900001000100004380003C
:1045200021862000914078006285200012417800A9
:10453000400090000043880024FE3700889FBE00A2
:104540006240800073408000404080005140800005
:10455000800F5100818F59003300320040408000AD
:1045600051408000604088007140880071428000A6
:104570008142880062408000734080008042800059
:1045800082007800330A07004840800059408000CC
:104590001C100700F2C5B3008000EB006F0F07008E
:1045A000800F5400818F5C000E00390010C0B300F2
:1045B00052E8B700CD42A80054C8BF00E34F5000F6
:1045C0000D003200E34F500026003600E44F50004B
:1045D00074003200E54F5000340032004F04BE003A
:1045E000000006005268EF00CD42A90054C8BF0089
:1045F000E34F5000F3FF3A00FD0F07000828EF00DB
:104600000A28EF00628520001241780021862000F0
:10461000914078000204E000AA003A000104E000A2
:10462000A1003A00FFFF3700804280004E08E300FF
:10463000D5FF32004040800051408000604088003B
:104640007140880071428000814288006240800091
:10465000734080008042800082007800FD090700DE
:10466000C9FF3700E14F500074003200E24F5000A4
:10467000DAFF3A0080322200CB0E07000828EF0054
:104680000A28EF00C80F0700628520001241780059
:1046900021862000914078000204E00013003A00D7
:1046A0000104E0000A003A00FFFF370062852000A5
:1046B0001241780021862000914078000204E00039
:1046C00025003A000104E0001C003A00FFFF37001B
:1046D000004380001004E0000E0032004000900013
:1046E000004388000204E000EDFF32005668EF004E
:1046F0008040EB00204429003B0E070010C0B300AF
:1047000056E8B7005468EF004F04BE0000000600F2
:10471000B4FF3700900090000100010000438000CA
:1047200062852000124178002186200091407800A7
:104730004000900000438800EAFF370000438000FB
:104740001004E0000D00320040009000004388009B
:104750000204E000DBFF32005668EF008040EB000F
:10476000D04E2900200E070010C0B30056E8B70055
:104770004F04BE00000006009AFF37009000900032
:104780000100010000438000628520001241780092
:10479000218620009140780040009000004388006E
:1047A000EBFF37005248E200DF003A00628520004C
:1047B0001241780021862000914078000204E00038
:1047C0000A003A000104E00001003A00FFFF370050
:1047D000004380001004E0000E0032004000900012
:1047E000004388000204E000F6FF32005668EF0044
:1047F0008040EB00A04D2900FB0D070010C0B30066
:1048000056E8B7005468EF004F04BE0000000600F1
:1048100074FF370090009000010001000043800009
:1048200062852000124178002186200091407800A6
:104830004000900000438800EAFF3700E282AB00AE
:104840008D003A0062852000124178002186200008
:10485000914078000204E0002E003A000104E000DC
:1048600001003A00FFFF3700004380001004E00021
:10487000030032004000900000438800F5FF37003D
:10488000900090000100010000438000628520003C
:10489000124178002186200091407800400090006D
:1048A00000438800EBFF3700004380001004E00065
:1048B0000E00320040009000004388000204E00037
:1048C00056FF32005668EF008040EB00B0442900EC
:1048D000C50D070010C0B30056E8B7005468EF00DC
:1048E0004F04BE00000006003EFF3700900090001D
:1048F0000100010000438000628520001241780021
:1049000021862000914078004000900000438800FC
:10491000EAFF37005668EF008040EB00A046290010
:10492000B10D070010C0B30056E8B7000040EB001F
:10493000350A0700801F7800104A2900801F780080
:10494000400D21000BF00700628520001241780025
:10495000E487570021862000914078000204E0009F
:104960000A003A000104E00001003A00FFFF3700AE
:10497000004380001004E0001A0032004000900064
:10498000004388000204E000F6FF32005668EF00A2
:104990008040EB00400D2100930D070010C0B300D4
:1049A00056E8B700180A0700801F7800A04A2900BF
:1049B000801F7800400D2100EEEF07006285200087
:1049C00012417800E487570021862000914078004A
:1049D0000204E00014003A000104E0000B003A0079
:1049E000FFFF3700900090000100010000438000AD
:1049F00062852000124178002186200091407800D5
:104A00004000900000438800DEFF37000043800034
:104A10001004E0000E0032004000900000438800C7
:104A20000204E000ECFF32005668EF008040EB002B
:104A3000400D21006C0D070010C0B30056E8B70010
:104A40005468EF004F04BE0000000600E5FE37008A
:104A5000900090000100010000438000628520006A
:104A6000124178002186200091407800400090009B
:104A700000438800EAFF3700628520001241780079
:104A800021862000914078000204E00013003A00E3
:104A90000104E00001003A00FFFF370000438000FE
:104AA0001004E00003003200400090000043880042
:104AB000F5FF3700900090000100010000438000E6
:104AC0006285200012417800218620009140780004
:104AD0004000900000438800EBFF37005668EF006D
:104AE0008040EB00F04829003F0D070010C0B300E4
:104AF00056E8B7000040EB00C3090700801F7800AC
:104B0000104A2900801F7800400D210099EF07000E
:104B10006285200012417800E4875700218620003A
:104B2000914078008DFF37000040EB00B609070088
:104B300000047800F2C5B300803821000100200095
:104B4000060E07008004EB00800F5400818F5C008C
:104B5000210031006285200012417800218620006A
:104B6000914078000204E00013003A000104E000E4
:104B700001003A00FFFF3700004380001004E0000E
:104B8000030032004000900000438800F5FF37002A
:104B90009000900001000100004380006285200029
:104BA000124178002186200091407800400090005A
:104BB00000438800EBFF37005668EF008040EB00B1
:104BC000704C2900080D070010C0B30056E8B7006C
:104BD0005468EF000CFF370010C0B300D607070081
:104BE000CD62A80062852000124178002186200055
:104BF000914078000204E00013003A000104E00054
:104C000001003A00FFFF3700004380001004E0007D
:104C1000030032004000900000438800F5FF370099
:104C20009000900001000100004380006285200098
:104C300012417800218620009140780040009000C9
:104C400000438800EBFF37005668EF008040EB0020
:104C5000304B2900E40C070018C0B3006085200029
:104C60000848780012002000A00020000100200069
:104C7000370A0700084078006A0707000001EB00C8
:104C80004006200001002000310A07000040EB0030
:104C9000A90707000040EB006207070062852000BB
:104CA0001241780021862000914078000204E00043
:104CB00013003A000104E00001003A00FFFF370052
:104CC000004380001004E000030032004000900028
:104CD00000438800F5FF37009000900001000100BC
:104CE0000043800062852000124178002186200068
:104CF000914078004000900000438800EBFF3700AF
:104D00005668EF000000EB005A0B070000417800E6
:104D10000281FB008001EB008040EB00F04B29009A
:104D2000980D070010C0B30056E8B700E422A900B0
:104D3000CD62A9005468EF00B3FE3700A20800005E
:104D40000001000000000000FA110000080000004F
:104D500000000000000C0000000100000000000046
:104D600002120000080000000000000048080000D7
:104D70000200000000000000A20900004C0000003A
:104D800000000000AA1100000A000000000000005E
:104D90004C10000044000000000000004A08000021
:104DA00002000000000000004C08000002000000AB
:104DB00000000000001000004C0000000000000097
:104DC000901000004400000000000000B41100003A
:104DD0000A000000000000000808000004000000B5
:104DE000000000000C0800000400000000000000AB
:104DF0004E08000002000000000000005008000003
:104E00000200000000000000520800000200000044
:104E10000000000054080000020000000000000034
:104E2000000800000800000000000000D41000008E
:104E30004000000000000000BE1100000A00000059
:104E40000000000010080000040000000200000044
:104E500028230000000000001408000004000000E7
:104E6000000000001808000004000000000000001E
:104E70001C080000040000000000000020080000E2
:104E800004000000000000002408000004000000EE
:104E900000000000EE0900000C000000000000000F
:104EA000560800000200000002000000010000009F
:104EB000580800000200000000000000C8110000B7
:104EC0000A000000000000005A0800000200000074
:104ED00000000000D21100000A00000000000000E5
:104EE0001411000036000000000000005C08000003
:104EF00002000000000000005E0800000200000048
:104F00000000000060080000020000000000000037
:104F10006208000002000000000000004A110000CA
:104F200022000000020000002203300000310000D7
:104F30003200330000340000350036000037000036
:104F400038003900004100004200430000440000E6
:104F50004500460000000000640800000200000058
:104F600000000000660800000200000000000000D1
:104F7000680800000200000000000000FA090000BC
:104F800006000000000000006A08000002000000A7
:104F9000000000006C08000002000000000000009B
:104FA0006E08000002000000000000007008000011
:104FB0000200000000000000720800000200000073
:104FC000000000000A1200000800000000000000BD
:104FD000DC1100000A00000000000000E6110000E3
:104FE0000A0000000000000012120000080000008B
:104FF000000000003E12000002000000000000005F
:1050000074080000020000000000000076080000A4
:10501000020000000000000078080000020000000C
:10502000000000007A0800000200000000000000FC
:105030007C08000002000000000000007E08000064
:1050400002000000000000008008000002000000D4
:1050500000000000820800000200000000000000C4
:1050600032120000060000000000000038120000AC
:10507000060000000000000084080000020000009C
:105080000000000086080000020000000000000090
:10509000880800000200000000000000280800004E
:1050A0000400000000000000000A000000020000F0
:1050B000000000001A1200000800000000000000BC
:1050C0004012000002000000000000004212000038
:1050D0000200000000000000441200000200000076
:1050E0000000000046120000020000000000000066
:1050F000F01100000A000000000000002212000071
:105100000800000000000000000F00008000000008
:1051100000000000800F0000800000000000000080
:105120002C0800000400000000000000300800000F
:10513000040000000000000034080000040000002B
:10514000000000003808000004000000000000001B
:105150008A08000002000000000000002A1200007F
:1051600008000000000000003C08000004000000EF
:1051700000000000400800000400000000000000E3
:105180004408000004000000000000006C11000052
:1051900020000000000000008C0800000200000059
:1051A00002000000FFFF00004812000002000000A3
:1051B000000000004A120000020000000000000091
:1051C0008E080000020000000000000090080000AF
:1051D0000200000000000000920800000200000031
:1051E0000000000094080000020000000000000021
:1051F000960800000200000000000000980800006F
:1052000002000000000000009A08000002000000F8
:10521000000000009C0800000200000000000000E8
:10522000000D00000001000000000000000E000062
:1052300000010000000000009E08000002000000C5
:1052400000000000A00800000200000000000000B4
:105250004C12000002000000000000008C11000051
:105260001E00000002000000286E69006C2900008A
:1052700025006800076C09004C836A009074A00048
:105280007AC000008068880000846C008200810081
:105290004E120000020000000000000000000000AC
:1052A000889FBE008A9FBE008C1F78000084FB0090
:1052B000880444008A832000EA807C000100E0002A
:1052C000020032001100E0000A0035002B2421000A
:1052D000EB407C00E3CF50000A0032000104E00004
:1052E00004003200E2CF500042003200E1CF500013
:1052F0000B0032004F0678004F05BE004F04BE0081
:10530000000006000040EB0080757C004F0678002E
:105310004F05BE004F04BE0000000600F9FF370035
:1053200047242100E7407C008141780002C4B3009B
:1053300082CF5000010036008241780083C05000C7
:1053400081737C004642DD0002F020000201420031
:105350000C83200009064600020E78006424210018
:1053600064427C000404E000320032000304E000E8
:105370000D003200C6822000090343009602780027
:105380000202780083407800154A78001C02E80089
:10539000040E78009602E800050B78008140E900D1
:1053A000F9FF3A00E7407C000104E00005003A0004
:1053B00001C4B30081CF51004600320031C0B300B8
:1053C00081757C0000C2EB00E14F50003A003600CE
:1053D00011C0B300044078001209070000B57C003A
:1053E0004F0678004F05BE004F04BE0000000600C7
:1053F000C4FF370000C2EB00E14F5000230036002D
:105400008041EB000001EB0011C0B30004407800C4
:105410000409070000B57C0030C0B30080757C0033
:105420004F0678004F05BE004F04BE000000060086
:10543000B4FF37000304E000DBFF3200C682200027
:105440000903430096027800020278008340780046
:10545000154A78001C02E800040E78009602E80065
:10546000050B78008140E900CEFF3200154A780034
:105470001C02E800040E78009602E800050B780094
:105480008140E900F2FF3A00C6FF3700405E290084
:1054900060427C008041EB000001EB0011C0B300D2
:1054A00004407800DF08070000B57C0030C0B3007E
:1054B00080757C00DAFF3700405E290060427C0086
:1054C00011C0B30004407800D608070000B57C0086
:1054D000C3FF370021C0B30081757C0000C2EB0020
:1054E000E14F5000BAFF3E00F3FF370020212100BA
:1054F00010417800FF406100E1CF50000100320010
:105500000000060003C6B30010C1610000C2B30072
:10551000804F5100FAFF3A00602121000041EB006A
:105520001004E0000A00320012C0B300904F1100D6
:105530005C00320023C0B30090CF110003003200A2
:1055400032C0B300904F1100EDFF3A0001417800E6
:10555000302121001040780001C2B300814F50007B
:10556000220032001700360011C2B300814F5000F4
:105570004E00320021C2B300814F5000E0FF3A00DC
:10558000402121001080FB00512121009180FB006F
:105590008AE8B7008A08AB004C0032000281FB00A9
:1055A0000201410000842000E00079000040EB008F
:1055B00001000100E04F80000070A000E04F880073
:1055C000000006000004E0002B003200E14F500014
:1055D000CBFF3A00A0222100D04F8800E04F80008E
:1055E0000070A000E04F880000000600802121002C
:1055F0001080FB00912121009180FB00C808DD0094
:1056000001007000D120210091417800804878008D
:10561000C800DE00E02021009041780001487800B9
:10562000001F2100A12021009141780080487800CE
:10563000C800DE00B02021009041780001487800C9
:105640000281FB0002014100C0832000600079005C
:10565000F12021001141780080487800C800DE0068
:10566000002121001041780001487800C02021006D
:105670001074A00000000600A0222100D04F880076
:1056800080002000F04F8800E04F80000000A00064
:10569000E04F8800E04F80000070A000E04F8800DD
:1056A000000006000041EB00A9FF37002022210086
:1056B000D04F880070002000F04F880011CCB3005C
:1056C000C09F200001487800000006000281FB0016
:1056D0000201410000842000E000790010C0B30006
:1056E00001000100E04F80000070A000E04F880042
:1056F000B3FF3700889FBE008A9FBE000004780079
:1057000011C0B300014C7800380090000000E000A8
:10571000010032000040010070438000FF0F500084
:10572000090036008824AB0007003A00D99E20000B
:105730001904E0000A003A00409E20000148780069
:10574000309E20000048EB00004CEB000000EB0016
:10575000300498004F05BE004F04BE000000060054
:1057600002C4B300C104210048C8BF0046070700B7
:10577000DA082100004D78004A68EF000004E000DC
:105780000A0032000040EB00CB0421000080FB0047
:10579000EB407800A01F2100D40607004A48EC0027
:1057A0004AE8B7009A4F1000F8FF3E003B9E2000E9
:1057B0001B4078000004E00025003A004A68EF0032
:1057C0000040EB00299A2000FAC3B3000080FB00E0
:1057D0008080440020202100BA0707000004E00078
:1057E0002F0032004A48EC004AE8B7008A4F5000C8
:1057F000F6FF3600219E20008048780010C0B300DC
:10580000804D780048C8BF008080FB002224210022
:10581000E2C078000104E000CBFF3A0021C0B300F1
:10582000814D7800219E200011417800219A2000AE
:10583000210A0700004CEB000000EB003004980048
:105840004F05BE004F04BE0000000600C4FF370035
:10585000E14F5000EBFF320048C8BF0090FE070048
:1058600048C8BF000080FB0021242100614078006F
:105870000004E000020032001904E000B2FF3A0028
:10588000804DEB00004CEB000000EB003004980072
:105890004F05BE004F04BE0000000600B0FF3700F9
:1058A0004AC8BF00D3FF3A00004CEB000000EB00F9
:1058B000300498004F05BE004F04BE0000000600F3
:1058C000A7FF3700889FBE000004780011C0B30016
:1058D000014C7800380090000000E0000100320028
:1058E0000040010070438000FF0F50000C003600A4
:1058F00049248000E284640009003A00B0042100D9
:105900001004E0000B003A00200421000148780058
:10591000100421000048EB00000421000948780031
:10592000004CEB000000EB00300498004F04BE0078
:105930000000060002C4B300010921004CC8BF00EA
:10594000AA030700110D2100804878000004E00040
:10595000090032008080FB000309210089F17800F2
:10596000928680000200E000030032008040780050
:10597000030078000200010019042100194078009A
:105980000004E0001F003A00110020001200200077
:105990000300200020042100020107000004E000B1
:1059A0002E003A0000C4B30001042100914F100002
:1059B000DBFF3A0010C0B300804C78004CC8BF0039
:1059C0008080FB0022242100E2C078000104E00076
:1059D000D3FF3A0021C0B300814C780001042100BC
:1059E0001141780001002100B3090700004CEB00D1
:1059F0000000EB00300498004F04BE0000000600D9
:105A0000CCFF3700E14F5000ECFF32004CC8BF0024
:105A100023FE07004CC8BF000080FB0021242100AA
:105A2000614078000004E000BDFF3A00804C78003F
:105A3000010421008048780011C0B3002004210037
:105A400001487800004CEB000000EB0030049800A7
:105A50004F04BE0000000600B6FF3700000421001E
:105A60001004E000D3FF3A00004CEB000000EB0014
:105A7000300498004F04BE0000000600ADFF370060
:105A8000889FBE008A9FBE008C1F780000047800AB
:105A900019C0B300094C7800380090000000E00005
:105AA00001003200004001005CC8BF008040E800F7
:105AB000C28520000149780022C1B3000440BC0027
:105AC000820578004A1121006AC67D000C04E000BE
:105AD00018003A000B0645001C4090000080FB00B7
:105AE0002C4190004811DD00020170006700460063
:105AF000110020008001EB00AA0007000004E00074
:105B00002A003A00C185200091407800E2CF500081
:105B1000010036005C68EF00004CEB000000EB0079
:105B2000300498004F0678004F05BE004F04BE00B9
:105B300000000600E14F5600F4FF3A000B80E80039
:105B400000004500904090008180FB0020419000C3
:105B50004811DD00028170000B0045006700400025
:105B6000110020008001EB008E0007000004E0001F
:105B7000E4FF32000B0045000048EB00F0854500D3
:105B80006AC07D000080FB000B0545009A40900034
:105B9000C808DD00810070000C40780001000100A1
