:100000000C945D000C9474130C9474130C9474137E
:100010000C9474130C94810E0C94790F0C9474133B
:100020000C9430090C9474130C9474130C94741382
:100030000C9474130C9474130C9474130C94741324
:100040000C9474130C9474130C9474130C94350C5A
:100050000C9474130C941E100C9442100C945E12A9
:100060000C94B90D0C9474130C944D0F0C94210F37
:100070000C9474130C94460E0C9474130C94741317
:100080000C9474130C9474130C945A130C947413EE
:100090007800783A80783A785E002720785E78AAEF
:1000A0008078AA78B300274478B379398079397990
:1000B0003B00274D793B794A800011241FBECFEFCA
:1000C000CDBFDFE7DEBFE0E9F0E040E017C0B5916B
:1000D000A59135912591059107FD0CC095918591CC
:1000E000EF01F92FE82F05900D92A217B307D9F76A
:1000F000FE0104C01D92A217B307E1F7E93BF40724
:1001000031F70E9487000C94CD12F894FFCFCF9363
:10011000DF93CDB7DEB72997CDBFDEBF81E08983FE
:100120001A821B821C821D821E821F8218861986DB
:100130000E94FA1178940E942D1383E00E94F80F18
:1001400084E199E90E9427110E94E2128BEE91E965
:100150000E94271180E090E00E9471138093F47850
:1001600081E090E00E9471138093F57882E090E046
:100170000E9471138093F67862E070E087EF98E751
:100180000E946E12182F8091F678181709F463C137
:100190008DEF91E90E942711612F70E080E090E0DF
:1001A00042E00E9441088BE092E90E9427118FE013
:1001B00092E90E9427116091F67870E080E090E06B
:1001C00042E00E9441080E94AB058EE693E08093D6
:1001D000C6789093C77885EC98E70E94CF0F88E0A7
:1001E00097E08093BD789093BE7881E08093B37858
:1001F0008CEB98E70E94CF0F80E090E00E945B06B6
:100200000E94000E1BE08091F578833099F16AB16D
:10021000669561708CE898E70E943104833009F498
:10022000FBC0843009F4B5C0813009F4A2C040E4B9
:1002300052E460E070E0CE0101960E947E0B8111D5
:1002400059C080914379882309F448C0A091FB7874
:10025000B091FC788C91882309F402C117968D9196
:100260009C9118978093FB789093FC788091F57817
:10027000833069F64091E4785091E578149F9001BD
:10028000159F300D1124ADECBCEC0E948C127C014A
:10029000F694E794F694E794F694E794E091DE7888
:1002A000F091DF789A01220F331F220F331F220FA4
:1002B000331F240F351F0E948C12969587959695B3
:1002C000879596958795E817F90720F0EE16FF06B3
:1002D00008F09DCFCF010E945B0699CF809150001E
:1002E0008160809350008895809150008E7F80932C
:1002F000500089CF8FE192E90E9427110E94961148
:10030000BC01990F880B990B0E949B0987E292E927
:100310000E9427110E94B011BC01990F880B990B04
:100320000E949B0983E392E90E9427110E94E31136
:10033000BC01990F880B990B0E949B098FE392E9EE
:100340000E94271183E492E90E9427118091F57899
:10035000813009F47BC008F474C0823009F068C0B1
:100360008DE492E90E9427118CE592E90E94271101
:1003700068CF8091F5788F5F8093F578843010F0A6
:100380001092F5788091DE789091DF780E945B067C
:100390004ECF84E192E90E94271162E070E084EF81
:1003A00098E70E946E128093F67884EFE82E88E733
:1003B000F82E00E010E0F70161917F01C8010E9472
:1003C00010120E9455138111FCCF0F5F1F4F033095
:1003D000110589F78FE092E90E9427116091F67864
:1003E00070E080E090E042E00E944108FFEF2EE9DB
:1003F00084E2F15020408040E1F700C0000088ED29
:10040000A89584BF80910001816080930001809154
:10041000010181FDFCCFFFCF8091F4788F5F809345
:10042000F478833010F01092F4780E94000EFFCE22
:100430006091E4787091E57880E090E00E949B09FB
:1004400093CF87E592E90E9427118ECF82E592E94A
:100450000E94271189CF82EF91E90E942711A7CE30
:100460001196ED91FC911297CD010995A091FB7821
:10047000B091FC78F3CE0F931F93CF93DF93EC01F1
:10048000809140798111A3C0A0914279B0E010978A
:1004900009F422C120E030E000E050E012E3220F36
:1004A000331F220F331FF901E15EF7484081469563
:1004B00046959181892F8295880F880F807C282FFF
:1004C000242B96959695392F3370129FB001139F68
:1004D000700D1124C617D7070CF0052F5F5F252F6D
:1004E00030E02A173B07DCF2A02FB0E020913F79E3
:1004F00084E02802A0011124FA01E05EF74880811F
:10050000982F96958181879588278795892BAA0FA3
:10051000BB1FAA0FBB1FFD01E15EF7483081369576
:1005200036959181E92FE295EE0FEE0FE07C6E2F6C
:10053000632B96959695792F737092E3969FF001B1
:10054000979FF00D112494E6899FB00111246E1736
:100550007F070CF464C02093417935E0839FC0018C
:1005600011248093F9789093FA782F5F2770322FB7
:100570003295307F2091EF782F78232B2093EF78DE
:10058000FA01E25EF7482081322F3F772091EC7824
:100590002078232B2093EC78382F330F2091ED789F
:1005A0002170232B2093ED78282F221F2227221F32
:1005B0008091EE78807F9770990F822B892B8093A2
:1005C000EE78DF91CF911F910F910C947C112091C7
:1005D0003F7934E02302A0011124FA01E05EF748DC
:1005E0008081982F96958181879588278795892B7B
:1005F00034E6839FC00111248C179D075CF0FA013B
:10060000E25EF748818134E6839FC0011124C81758
:10061000D9076CF5DF91CF911F910F910895009349
:1006200041790F5F0770802F8295807F0091EF786E
:100630000F78082B0093EF78A25EB7489C91119633
:100640008C9183709093EC78292F220F220F282B06
:100650002093ED78292F22952695269523703091A9
:10066000EE78307F982F990F990F832FA6CF209384
:100670004179CE0164E170E00E9425126093F9781F
:100680007093FA782F5F27702295207F8091EF7802
:100690008F78822B8093EF788081982F9F7780913D
:1006A000EC788078892B8093EC78962F990F809145
:1006B000ED788170892B8093ED78661F6627661F21
:1006C0009091EE78907F7770872F880F792F762B17
:1006D000782B7093EE7875CF00E008CFCF93DF933F
:1006E00021E0DC012C931596ED91FC911697309743
:1006F00009F00994EC0180913A78833009F47BC0C9
:10070000B0F0853009F473C008F445C0863009F0B4
:100710006AC040E251EA60E070E08BE398E70E9433
:100720007E0B8823A1F08FE00E94881010C08130DA
:1007300009F43FC0823009F056C040E251EA60E05F
:1007400070E08BE398E70E947E0B811186C0809158
:100750004478833009F453C080F1853009F46FC0C8
:1007600008F45BC0863009F051C040E251EA60E015
:1007700070E085E498E70E947E0B882331F080E2E8
:100780008093670480E18093670418821D821E8233
:10079000DF91CF91089540E251EA60E070E08BE391
:1007A00098E70E947E0B882391F28CE00E948810CB
:1007B000CECF81E00E948810CACF813009F446C0B4
:1007C000823021F540E251EA60E070E085E498E78C
:1007D0000E947E0B8823C9F280E28093670480E147
:1007E00080936504D2CF80E00E948810B0CF85E06E
:1007F0000E948810ACCF84E00E948810A8CF80E2CD
:100800008093650480E180936604BFCF80E280938B
:10081000650480E180936504B8CF40E251EA60E06E
:1008200070E085E498E70E947E0B882309F4ADCF41
:1008300080E28093650480E180936704A6CF80E224
:100840008093660480E1809366049FCF80E280936A
:10085000660480E18093650498CF83E00E9488104D
:1008600076CFCF92DF92EF92FF920F931F93CF93A9
:100870008C01DC01CC91C13009F453C008F442C0B2
:10088000C23079F0C33081F5662309F494C085E065
:10089000F80180830780F085E02D309751F10995AC
:1008A00028C0662309F47CC00E944411D801119627
:1008B000CD90DD90ED90FC901497DC01CB018C196C
:1008C0009D09AE09BF09803C9241A105B10580F0A8
:1008D000D8011C921596ED91FC911697309709F46A
:1008E00080C00995C1E005C0662311F0D8011C92B3
:1008F000C0E08C2FCF911F910F91FF90EF90DF9070
:10090000CF9008956111F4CF81E0F80180830E94B7
:100910004411D80111966D937D938D939C931497F8
:10092000E8CF61111EC00E944411F801C180D2803D
:10093000E380F480DC01CB018C199D09AE09BF096D
:1009400081159A4FA105B10598F285E0D8018C93E5
:100950001996ED91FC911A97309709F00995C4E02A
:10096000C8CF0E944411F801C180D280E380F48096
:10097000DC01CB018C199D09AE09BF09803496407A
:10098000A105B10508F4B2CF82E0D8018C930E9492
:100990004411F8016183728383839483C0E0A9CFFB
:1009A0000E944411F801618372838383948383E0FE
:1009B0008083C0E09ECF0E944411D8011196CD9053
:1009C000DD90ED90FC901497DC01CB018C199D0912
:1009D000AE09BF0981159A4FA105B10508F0B5CF41
:1009E00087CFC1E086CFCF93DF9380E094E021EC06
:1009F000FC012083C0E4D4E02CE02883A0E6B4E02E
:100A000020EF2C9340EA54E0FA01108221E4FC012B
:100A100024831C8220EB14962C931497FA011482E1
:100A2000FC01108A118A128A138A148A158A168A7E
:100A3000178A188A88E0898B1A8A1B8A1C8A1D8A61
:100A40001E8A1F8A50961C92509751961C9251975D
:100A500052961C92529753961C92539754961C92FE
:100A6000549755961C92559756961C9256975796A2
:100A70001C92FA01108A118A128A138A148A158A22
:100A8000168A178AE0EEF5E081E0818310821582F4
:100A900017821086118682E0868312828DE793E1A9
:100AA00080932179909322798EE793E180931F7947
:100AB000909320798FE793E180931D7990931E792D
:100AC00080E893E180931B7990931C7981E893E10E
:100AD0008093197990931A7982E893E1809317793A
:100AE0009093187983E893E1809315799093167920
:100AF00084E893E1809313799093147985E893E1E6
:100B0000809311799093127986E893E180930F791D
:100B10009093107987E893E180930D7990930E7903
:100B200088E893E180930B7990930C7989E893E1BD
:100B30008093097990930A798CE793E18093077900
:100B4000909308798BE793E18093057990930679E8
:100B5000DF91CF9108958DE18093E67841E050E0F8
:100B600066EE78E781E590E00E94EF0E41E050E00C
:100B700060E078E781E590E00E94BC0E809100780B
:100B80008093F07884FF05C09091F87891609093FD
:100B9000F87885FF05C09091F87892609093F87886
:100BA00080FF09C082FF73C081FF79C08091F77810
:100BB00081608093F7786AE070E080E090E00E94C6
:100BC000DA0B8091F77880FF08958E7F8093F77815
:100BD0008CE18093E67841E050E066EE78E781E5CD
:100BE00090E00E94EF0E41E050E060E078E781E5A0
:100BF00090E00E94BC0E8091007880934279109220
:100C0000E67841E050E066EE78E781E590E00E940A
:100C1000EF0E4CE150E060E078E781E590E00E9463
:100C2000BC0E90914279992379F250913F7940918D
:100C30004079AEE1B8E720E030E005C02F5F3F4FDC
:100C400014962917F8F4F901EE0FFF1FEE0FFF1F9E
:100C5000E050F84880818C93818111968C93119794
:100C6000828112968C931297838113968C9313979B
:100C7000807F803C19F7522F41E02F5F3F4F149641
:100C8000291708F350933F7940934079089581FFE5
:100C90000CC08091F77884608093F7788CCF809136
:100CA000F77882608093F77886CF8091F7788860B4
:100CB0008093F77880CF8F929F92AF92BF92CF921E
:100CC000DF92EF92FF926C018091F578813009F408
:100CD00073C008F45CC0823069F580913A78813045
:100CE00029F081E080933A7880933B78E12CF12CD5
:100CF0008FEF93E088248A9423E0922EA12CB12CCC
:100D00000E949B1282E791E90E942711C701B60158
:100D10000E949B0980E891E90E942711C501B40156
:100D2000FF90EF90DF90CF90BF90AF909F908F900B
:100D30000C949B0980913A78863031F086E080935C
:100D40003A7881E080933B78E12CF12CC701B60121
:100D5000EAE0660F771F881F991FEA95D1F728E808
:100D600033E140E050E00E94661049015A0121152C
:100D700084E038074105510508F448C08FEF93E03F
:100D800088248A9453E0952EA12CB12CB9CF809160
:100D90003A78833081F183E080933A7881E08093E0
:100DA0003B7880E791E0F0E78F2E99249394A12C73
:100DB000B12CE12CF12CA4CF90913A78953081F0B0
:100DC00095E090933A7880933B7883EA92E0A3EAA7
:100DD0008A2EA2E09A2EA12CB12CE12CF12C90CFDE
:100DE00083EA92E043EA842E42E0942EA12CB12CB7
:100DF000E12CF12C85CF80E791E030E7832E992418
:100E00009394A12CB12CE12CF12C7ACFC90178CF8D
:100E1000CF92DF92EF92FF921F93CF93DF93EC017B
:100E200081E088838D819E81892B09F48FC040E108
:100E300057E260E070E083EB98E70E947E0B882326
:100E400009F47BC05EE6C52E58E7D52E6EEDE62E82
:100E500068E7F62E11E08FEF810F823049F1833081
:100E600009F446C0813059F186E10E944D129C017F
:100E7000A8E8B3E10E948C123CE09695879577959F
:100E800067953A95D1F742E0C6010E94220BF7011F
:100E900080839183143009F443C01F5F84E0C80E3F
:100EA000D11CE2E0EE0EF11C8FEF810F8230B9F61B
:100EB00085E40E944D129C0140E050E006C084E4AD
:100EC0000E944D129C0140E050E0A8E8B3E10E946E
:100ED000C2122CE096958795779567952A95D1F75C
:100EE00042E0C6010E94220BF70180839183D5CF97
:100EF00088E40E944D129C01A8E8B3E10E948C1284
:100F00004CE096958795779567954A95D1F742E09D
:100F10008AE798E70E94220B8093E4789093E57823
:100F20000E94491318821D821E82DF91CF911F916A
:100F3000FF90EF90DF90CF9008951882DF91CF91CE
:100F40001F91FF90EF90DF90CF9008950E94431380
:100F500087E197E08D839E836ACFAC0190914179C0
:100F6000292F30E080913F79682F082E000C770BF5
:100F70002617370709F444C0220F331F220F331FEF
:100F8000F901E25EF74881812081382F3370B90181
:100F9000660F771F220F331F220F331F220F331FBD
:100FA000260F371F241735070CF408959F5F97709D
:100FB000892F8295807F9091EF789F78982B9093DE
:100FC000EF78CA016AE070E00E94251273706093A6
:100FD000EC78872F8370962F990F990F982B909309
:100FE000ED7862956695669563709091EE78907F46
:100FF000880F880F692B682B6093EE780C947C1116
:10100000220F331F220F331FF901E25EF7482081C0
:101010002F7792E3299F90011124241735072CF292
:101020008F5F8770982F9295907F8091EF788F785F
:10103000892B8093EF78CA0162E370E00E94251249
:101040006F778091EC788078682B6093EC78809152
:10105000F978282F220F9091ED789170922B909330
:10106000ED78881F8827881F2091EE78207F909147
:10107000FA789770990F822B892B8093EE780C94D5
:101080007C110F931F93CF93DF938B019C01C42F8F
:10109000EFE9F8E70DC0895C808384E036952795F9
:1010A000179507958A95D1F788E7E739F80741F052
:1010B000802F8F7082938A3070F7805D8083EDCFB0
:1010C0008FEF80933E79C7FD3DC0CF7710923E7978
:1010D00088E080933D79E0E0D0E013C080913D79D5
:1010E000282F082E000C330BC217D30794F481501D
:1010F00080933D79E0913E79EF5FE0933E79E8306F
:10110000E4F40E2E000CFF0BE956F7481081103363
:1011100029F310923D790E943C138823E1F3812F3B
:101120000E94E9100E944F138823E1F3E0913E7979
:10113000EF5FE0933E79E83024F3DF91CF911F9188
:101140000F9108950E943C138823E1F380E30E94ED
:10115000E9100E944F138823E1F30E943C13882377
:10116000E1F388E70E94E9100E944F138823E1F31E
:10117000ACCF0A53657420566C6F6769633D2000DD
:101180006D562C204441433D20000A53657420567F
:101190006275733D35303030206D562C20496D61BD
:1011A000783D32303030206D41000A53657420564E
:1011B0006275733D39303030206D562C20496D6199
:1011C000783D31353030206D41000A53657420562A
:1011D0006275733D3132303030206D562C20496DB0
:1011E00061783D31303030206D41000A4C6F6164D0
:1011F000200075736572206366672C20006D66742D
:10120000206366672C20436B733D0020232000433E
:101210006B733D000A536176652063666720000AA0
:10122000566275733D2000206D562C2049627573FF
:101230003D2000206D412C2054656D703D20002024
:10124000B043000A566C6F6769633D20003530304B
:10125000300033333030003138303000206D5600EC
:101260001F920F920FB60F9211242F933F934F931B
:101270005F936F937F938F939F93AF93BF93EF93FE
:10128000FF93199921C0189926C01A992BC01B9950
:1012900030C01C9935C01D993AC01E993FC01F9996
:1012A00044C08FEF83B9FF91EF91BF91AF919F91B0
:1012B0008F917F916F915F914F913F912F910F90FF
:1012C0000FBE0F901F901895E0912179F09122792F
:1012D0000995189BDACFE0911F79F0912079099553
:1012E0001A9BD5CFE0911779F091187909951B9B3E
:1012F000D0CFE0911579F091167909951C9BCBCF51
:10130000E0911379F091147909951D9BC6CFE09176
:101310001179F091127909951E9BC1CFE0910D7959
:10132000F0910E7909951F9BBCCFE0910B79F0915C
:101330000C790995B6CFCF92DF92EF92FF92CF93BF
:10134000DF93C1EAD8E72AE0C22ED12CE12CF12CA0
:10135000A70196010E946610605D6A93B901CA01F7
:1013600028E7C739D207A1F710923E7981E0809330
:101370003D79E0E00E2E000CFF0BE956F748C081E6
:10138000C03389F110923D790E943C138823E1F328
:101390008C2F0E94E9100E944F138823E1F3E09103
:1013A0003E79EF5FE0933E79EA3024F380913D7916
:1013B000813039F0DF91CF91FF90EF90DF90CF90A7
:1013C00008950E943C138823E1F380E30E94E91012
:1013D0000E944F138823E1F3DF91CF91FF90EF90AC
:1013E000DF90CF90089580913D79882369F2E09154
:1013F0003E79EF5FE0933E79EA300CF4BBCFD6CF75
:101400008091877890918878019709F455C08091F0
:1014100004098B7F80930409809187789091887864
:1014200001978093877890938878E0918578F09100
:101430008678892B81F0CF010196809385789093EF
:101440008678809108098083809104098260809366
:10145000040984E00895CF010196809385789093E4
:101460008678809108098083809104098460809344
:1014700004098091040983608093040910927E78A6
:101480008FEF90E080937F789093807810928178AE
:1014900010928278109285781092867810928B78CC
:1014A00080910509806C8093050980910509816010
:1014B0008093050980E008958091040984608093F9
:1014C0000409AACFE0914679F0E0EE0FFF1FE25A3F
:1014D000F748108211828091010882FF11C0E091CB
:1014E0004679F0E0EE0FFF1FE25AF74880818260F4
:1014F0008083E0913579F0913679309709F009953C
:101500008091010881FF0CC08091377981608093C0
:101510003779E0913179F0913279309709F0099576
:101520008091010886FF11C0E0914679F0E0EE0F4E
:10153000FF1FE25AF748808184608083E09133790D
:10154000F0913479309709F0099520910008809145
:1015500046798F5F877090914579891769F0E0919E
:101560004679F0E0E253F7482083809346798091F2
:1015700044798F5F80934479E0912979F0912A79B9
:10158000309709F0099408958091050982FF1DC0E4
:1015900086E080938B7883E080938A788091050938
:1015A000846080930509E0918B78F0E0EE0FFF1FD7
:1015B000EC5DF9450190F081E02D099580938B78E1
:1015C00080918A78811139C0089580910709882314
:1015D00081F08091050984FF0CC085E080938B78B1
:1015E00081E080938A788091050980618093050964
:1015F000DACF80910809882381F08091050984FF62
:101600000CC085E080938B7882E080938A7880910B
:101610000509806180930509C6CF8091050983FF84
:10162000C2CF86E080938B7883E080938A78809124
:101630000509886080930509B6CFE0910379F091A0
:1016400004790994CF92DF92EF92FF920F931F9348
:10165000FC018B0102951295107F1027007F102747
:1016600020E030E080819181A281B38180179107D1
:10167000A207B30750F16C017D01C01AD10AE20A3A
:10168000F30A415004C0F694E794D794C7944A955E
:10169000D2F7B701A6017695679557954795841BB4
:1016A000950BA60BB70B80839183A283B38324E0B1
:1016B000B695A795979587952A95D1F71F910F9184
:1016C000FF90EF90DF90CF900895081B190B2A0B25
:1016D0003B0B415004C036952795179507954A95C1
:1016E000D2F73695279517950795800F911FA21F62
:1016F000B31F80839183A283B383D9CF8F929F92AC
:10170000AF92BF92CF92DF92EF92FF92CF93DF938F
:10171000EC014A015B018881811131C0C090FD78E4
:10172000D090FE78E12CF12C7601DD24CC240E94AF
:101730006413A0E0B0E0C82AD92AEA2AFB2A8981EA
:101740009A81AB81BC81C81AD90AEA0AFB0A8D8149
:101750009E81AF81B885C816D906EA06FB0668F0F7
:1017600081E08883DF91CF91FF90EF90DF90CF9061
:10177000BF90AF909F908F9008958881F3CFC090D5
:10178000FD78D090FE78E12CF12C7601DD24CC247C
:101790000E946413A0E0B0E0C82AD92AEA2AFB2AF2
:1017A000C982DA82EB82FC828D829E82AF82B88609
:1017B0001882B4CF4F925F926F927F928F929F92D6
:1017C000AF92BF92CF92DF92EF92FF924B015C01FA
:1017D0004090FD785090FE78612C712C7201DD24D0
:1017E000CC240E9464132C01612C712C4C285D28A0
:1017F0006E287F28880C991CAA1CBB1C880C991C7D
:10180000AA1CBB1C880C991CAA1CBB1C880C991C0C
:10181000AA1CBB1C880C991CAA1CBB1CC090FD7880
:10182000D090FE78E12CF12C7601DD24CC240E94AE
:101830006413A0E0B0E0C82AD92AEA2AFB2AC41817
:10184000D508E608F708C814D904EA04FB0430F305
:10185000FF90EF90DF90CF90BF90AF909F908F90D0
:101860007F906F905F904F9008951F920F920FB6E8
:101870000F9211242F933F934F935F936F937F9316
:101880008F939F93AF93BF93EF93FF93809105093D
:1018900084FD04C08091050982FF29C00E94C40A0A
:1018A0008091050987FD04C08091050986FF0EC05F
:1018B0008091050984FD08C08091050982FD04C05E
:1018C0008091050983FF18C00E94C40AFF91EF911F
:1018D000BF91AF919F918F917F916F915F914F9148
:1018E0003F912F910F900FBE0F901F9018958091F0
:1018F000050983FFD5CFD2CFE0918B78F0E0EE0FD2
:10190000FF1FEC5DF9450190F081E02D0995809372
:101910008B78DCCF0A0A53414D4D2D465444492063
:1019200056312E30487749443A2053414D4D2D468B
:101930005444495F524556312E300A4D43553A20A2
:101940004156523136444432300A46772052656C53
:101950003A204F637420313320323032332D32330A
:101960003A31363A35360A5265706F3A20687474E7
:1019700070733A2F2F6769746875622E636F6D2FCD
:1019800073616D70696465766B69742F46617374F9
:10199000546F6F6C2E6769740A4272616E63683AA5
:0F19A00020666561747572652F667464690A004C
:1019B00040E068ED80E690E00E946D1340E068ED45
:1019C00081E690E00E946D1340E068ED85E690E0CE
:1019D0000E946D1340E068ED88E790E00E946D136F
:1019E00044E268ED88E690E00E946D1340E068ED07
:1019F00089E690E00E946D1340E068ED80E790E09A
:101A00000E946D1340E068ED8CE790E00E946D133A
:101A100040E068ED82E690E00E946D1340E068EDE2
:101A200083E690E00E946D1340E068ED84E690E06C
:101A30000E946D1340E068ED80E890E00E946D1315
:101A40008091650081FFFCCF089582E69AE0809343
:101A50002B7990932C7985EA9FE080932F7990934E
:101A60003079E0E0F8E081E493E08087918780EDD1
:101A7000858380EC868383E08783138614861686AD
:101A800015868CE893E180933579909336798BE8CD
:101A900093E180933379909334798AE893E180934A
:101AA0003179909332791092377910923879109277
:101AB00049791092487988E0809347791092467965
:101AC0001092457910924479858180688583E091F0
:101AD0003979F0913A798EE498E78083918308957B
:101AE0008091837890918478892BC1F0809183785C
:101AF0009091847801978093837890938478E09193
:101B00008178F0918278CF010196809381789093CB
:101B1000827880818093080983E008958091897894
:101B2000811123C08091040983608093040910927D
:101B30007E788FEF90E080937F78909380781092FA
:101B4000817810928278109285781092867810921F
:101B50008B7880910509806C809305098091050937
:101B600081608093050980E008951092897881E072
:101B700008951F920F920FB60F9211242F933F9347
:101B80004F935F936F937F938F939F93AF93BF9385
:101B9000EF93FF937E9919C07C991EC07D9923C055
:101BA0007F9928C08FEF8FB9FF91EF91BF91AF91CF
:101BB0009F918F917F916F915F914F913F912F9165
:101BC0000F900FBE0F901F901895E0911979F0912A
:101BD0001A7909957C9BE2CFE0910979F0910A7915
:101BE00009957D9BDDCFE0910779F0910879099502
:101BF0007F9BD8CFE0910579F09106790995D2CFF6
:101C00008091F478882369F18130A9F49091447827
:101C1000953029F095E0909344788093457888E258
:101C200093E20E943B028CED95E00E94AD078AEAA8
:101C300091E90C94271180914478833031F083E04E
:101C40008093447881E08093457880EE9EE20E9404
:101C50003B0288EE93E00E94AD078AEC91E90C9478
:101C6000271180914478813029F081E08093447875
:101C70008093457888E893E10E943B0280ED97E0ED
:101C80000E94AD078AE891E90C9427111F920F92E8
:101C90000FB60F9211242F933F934F935F936F933F
:101CA0007F938F939F93AF93BF93EF93FF935B9932
:101CB00022C05A991AC0599B05C0E0910F79F09142
:101CC000107909958FEF8BB9FF91EF91BF91AF918B
:101CD0009F918F917F916F915F914F913F912F9144
:101CE0000F900FBE0F901F901895E0911B79F09107
:101CF0001C790995E0CFE0911D79F0911E79099545
:101D0000D8CF1F920F920FB60F9211242F933F93AB
:101D10004F935F936F937F938F939F93AF93BF93F3
:101D2000EF93FF938091430180FF07C0E0912779F3
:101D3000F0912879309709F009958091430181FF4E
:101D400007C0E0912579F0912679309709F009953F
:101D500083E080934301FF91EF91BF91AF919F91F9
:101D60008F917F916F915F914F913F912F910F9044
:101D70000FBE0F901F9018959C0190917E78911145
:101D800004C08091050980FD02C080E0089581E0D3
:101D900080937E7820937F78309380781092897832
:101DA000609385787093867840938778509388788D
:101DB00010928178109282781092837810928478B1
:101DC00010928A7880917F7890918078880F8160D6
:101DD0008093070984E080938B7881E008959C01CB
:101DE00090917E78911104C08091050980FD02C018
:101DF00080E0089581E080937E7820937F7830930F
:101E0000807810928978609381787093827840937B
:101E10008378509384781092857810928678109207
:101E200087781092887810928A7880917F78909144
:101E30008078880F8093070983E080938B7881E016
:101E400008951F920F920FB60F9211242F933F9374
:101E50004F935F936F937F938F939F93AF93BF93B2
:101E6000EF93FF9382E080930D06E0910179F0916A
:101E70000279309709F00995FF91EF91BF91AF91E9
:101E80009F918F917F916F915F914F913F912F9192
:101E90000F900FBE0F901F9018951F920F920FB6C4
:101EA0000F9211242F933F934F935F936F937F93E0
:101EB0008F939F93AF93BF93EF93FF9381E08093B2
:101EC0000D06E091FF78F0910079309709F00995BF
:101ED000FF91EF91BF91AF919F918F917F916F9102
:101EE0005F914F913F912F910F900FBE0F901F90D8
:101EF00018951F920F920FB60F9211242F933F93B4
:101F00004F935F936F937F938F939F93AF93BF9301
:101F1000EF93FF93E0912379F0912479309709F0C2
:101F2000099581E080935301FF91EF91BF91AF91AB
:101F30009F918F917F916F915F914F913F912F91E1
:101F40000F900FBE0F901F901895809147798830A1
:101F5000D0F4E0914879F0E0EA52F748808180932C
:101F60000208809148798F5F8770809348798091CB
:101F700047798F5F80934779E0912D79F0912E79A1
:101F8000309761F00994809105088F7D8093050852
:101F9000E0912D79F0912E793097A1F70895DC0129
:101FA00017962D913C911897232B09F008951C92B8
:101FB00015961D921C9216972091437921110BC002
:101FC000FC01878390878093FB789093FC782F5F48
:101FD000209343790895E091FB78F091FC78478154
:101FE000508517964D935C93189787839087EFCF12
:101FF0001092FB781092FC78109243798230B9F0FD
:10200000833071F0813009F0089580915000897F0C
:10201000809350008091500081608093500008951B
:1020200080915000897F826080935000F3CF80912F
:102030005000887F816080935000ECCF1F920F92F8
:102040000FB60F9211242F933F934F935F936F938B
:102050007F938F939F93AF93BF93EF93FF930E94D0
:10206000620AFF91EF91BF91AF919F918F917F9104
:102070006F915F914F913F912F910F900FBE0F90F5
:102080001F9018951F920F920FB60F9211242F9345
:102090003F934F935F936F937F938F939F93AF93F0
:1020A000BF93EF93FF930E94A50FFF91EF91BF9114
:1020B000AF919F918F917F916F915F914F913F91E0
:1020C0002F910F900FBE0F901F901895A1E21A2E1E
:1020D000AA1BBB1BFD010DC0AA1FBB1FEE1FFF1FCC
:1020E000A217B307E407F50720F0A21BB30BE40B1C
:1020F000F50B661F771F881F991F1A9469F7609563
:102100007095809590959B01AC01BD01CF0108951C
:10211000982F937059F490E4909305048C7069F0B3
:10212000843079F080E8809367040895913069F0F5
:1021300090E4909307048C7099F780E8809365048D
:10214000089580E880936604089590E490930604CF
:10215000E5CFE0E0F9E0848183608483AEE7B8E70F
:102160001C928FEF90E011968D939C93129713968B
:102170001D921C92149717961D921C9218971D96EB
:102180001C928581806C858385818160858380E058
:102190000895809141018111FCCF8FEF9FEF8093D3
:1021A0004C0190934D011092480110924901809387
:1021B0004A0190934B011092470181E080934201C4
:1021C00080934001809151018111FCCF1092520106
:1021D0000895909147799923B1F0E0914979F0E021
:1021E000EA52F7488083809149798F5F87708093A6
:1021F0004979809105088F7D809305088091477902
:10220000815080934779809105088062809305080A
:102210000895CF93DF9321E0DC012C931596ED9187
:10222000FC911697309709F00994EC0140E251EACD
:1022300060E070E08AEA98E70E947E0B882309F04C
:10224000A89518821D821E82DF91CF9108950F9369
:102250001F93CF938C01F801C1918F01CC2381F0A2
:102260000E943C138823E1F38C2F0E94E9100E9406
:102270004F138823E1F3F801C1918F01C111F0CF11
:10228000CF911F910F910895CF92DF92EF92FF921D
:10229000C090FD78D090FE78E12CF12C7601DD2401
:1022A000CC240E946413A0E0B0E0BC01CD016C29F5
:1022B0007D298E299F29FF90EF90DF90CF90089580
:1022C000E0E0F9E01082128287E1868317821086AF
:1022D00081EC83831582148283818E7F8383838143
:1022E000816083838581816085838AE793E1809320
:1022F0000379909304790895E6EEF8E780E380830C
:10230000ACEEB8E78C91818311968C911197828302
:1023100012968C911297838313968C91848345E057
:1023200050E0BF0181E590E00C94EF0E80E28093D5
:10233000E67841E050E066EE78E781E590E00E94C3
:10234000EF0E41E050E060E078E781E590E00E9428
:10235000BC0E8091007820E5829FC0011124089571
:1023600081E28093E67841E050E066EE78E781E52F
:1023700090E00E94EF0E41E050E060E078E781E5F8
:1023800090E00E94BC0E8091007820E1829FC00105
:1023900011240895E0E0F6E01182128288E283833E
:1023A000148216861386148681E0808781878FEFDA
:1023B000858380EF9FEF848B958B128A138A83E944
:1023C000808380E0089582E28093E67841E050E0E7
:1023D00066EE78E781E590E00E94EF0E41E050E084
:1023E00060E078E781E590E00E94BC0E8091007883
:1023F00090E008950E94D80C0E94F3040E94CA1134
:102400000E94EC120E9460110E9469130E94351311
:102410000E94C9100E94250D0E9424130C94A91239
:102420001F93CF93DF93EC01162F43E16DE980E01A
:1024300090E10E946D13188340E06DE980E090E127
:10244000DF91CF911F910C946D1397FB072E16F41B
:10245000009407D077FD09D00E94391207FC05D0FF
:102460003EF4909581959F4F0895709561957F4FAB
:102470000895AA1BBB1B51E107C0AA1FBB1FA617CB
:10248000B70710F0A61BB70B881F991F5A95A9F71D
:1024900080959095BC01CD0108958093080681E058
:1024A00080930A0680910D0680FFFCCF8091100674
:1024B0009091110621E020930D0608958F938FB718
:1024C0008F93EF93FF93E0E0F8E08481806484834E
:1024D000FF91EF918F918FBF8F911895FC0161153E
:1024E000710549F0680F791F80E09191890F6E178F
:1024F0007F07D9F7089580E00895E0E0F9E085814D
:10250000806C858383818E7F8383838181608383D5
:1025100010927E7880E00895A29FB001B39FC00121
:10252000A39F700D811D1124911DB29F700D811DFF
:102530001124911D089500249695879507949695EA
:1025400087950794982F802D8093A2069093A306D9
:10255000089540E068ED80E191E00E946D13E0E1B4
:10256000F1E012821382789480E00895E0E0F9E0CF
:1025700083818E7F838383818160838310927E78C1
:1025800080E008950E948C12A59F900DB49F900D3D
:10259000A49F800D911D11240895EC010E948E13BB
:1025A0000E948D13CE010E948F13CE010E947813DA
:1025B0008091FD789091FE7801968093FD789093BC
:1025C000FE78089589E091E18093A2789093A378B2
:1025D00081EA98E70C94CF0FE0EAF6E080EC98EA05
:1025E0008283938381EC808380E0089580917F785B
:1025F00090918078880F81608093070984E0089526
:1026000010927E78E0E0F9E085818160858388E042
:10261000089580917F7890918078880F8093070942
:1026200083E008950013F6120913700D000A761363
:102630007D12A910B612909147799923E1F30E9477
:10264000E91080E090E00895E0EBF0E0148285E886
:10265000808385E0828380E008951092FD78109257
:10266000FE7888ED92E10C945F13E0E0F0E1828166
:102670008F788283118208959091477981E091113A
:1026800001C080E00895E0E0F6E080818160808311
:102690000895E0E0F6E080818E7F80830895809148
:1026A000040886FB882780F908958091021086959A
:1026B000817008958F938FEF87BB8F9118958093CA
:1026C0002779909328790895809148019091490144
:1026D00008951092C00080E00895FC0164BF40831B
:1026E0000895FC01808108950C9400000C94A910B9
:1026F0000E94850008950895089508950895089505
:1027000008950895089508950895089508950895E1
:1027100008950895089508950895089508950895D1
:1027200000010000000000000000000100000000A7
:102730000000000003000000000000000000000096
:0F2740001B1300000100000000000000003B79A7
:02000004008278
:090000000915000000D90FFF00F2
:00000001FF
